:100000000C9436010C9455010C9455010C94550137
:100010000C9455010C9455010C9455010C94550108
:100020000C9455010C9455010C94F1070C942B0879
:100030000C9455010C9455010C9455010C945501E8
:100040000C9455010C945A010C9455010C945501D3
:100050000C9455010C9455010C9455010C945501C8
:100060000C9455010C9455010C9455010C945501B8
:100070000C9455010C9455010C9455010C945501A8
:100080000C9455010C9455010C9455010C94550198
:100090000C9455010C945501AB0AA10A900A820AEE
:1000A0007A0A6B0AB00A5807AE054B0795073E0758
:1000B000970731078D0724078F07170791070A074E
:1000C0009307FD066507F0066707E3066907D6068E
:1000D0008307C9068507BC068707AF068907A206FE
:1000E0008B0795067B0788067D077B067F076E06D4
:1000F000810761066D0754066B0747069B073A06A2
:1001000099072D069F0720069D071306750706060B
:100110007307F9057907EC057707DF057107D20545
:100120006F07C505BD05B5050D0A53757065727677
:1001300069736F727920436F6D70757465722053A7
:10014000657269616C5465726D696E616C20496E8F
:10015000746572666163650D0A0D0A737461746576
:10016000203A207072696E742063757272656E74C5
:100170002076656869636C652073746174650D0A27
:100180006576656E743D48565F5550203A2073651C
:1001900074206576656E7420746F2048565F5550E4
:1001A0000D0A0000010000500212000200000D02C2
:1001B000430003000009020401030904F3011402CF
:1001C000030904DB011603030904CD010C0C033100
:1001D0000032003300340035000000160355005390
:1001E0000042002000530065007200690061006C4D
:1001F000000000140359006F007500720020004ECB
:100200000061006D00650000000403090409024359
:1002100000020100C03209040000010202010005D1
:10022000240010010524010101042402060524060E
:1002300000010705820310004009040100020A00C2
:10024000000007050302400000070584024000008B
:100250001201000202000010C0167A04000101021F
:1002600003010001C11201803601813611241FBE35
:10027000CFEFD0E2DEBFCDBF11E0A0E0B1E0EEE411
:10028000F6E100E00BBF02C007900D92AE30B1075F
:10029000D9F721E0AEE0B1E001C01D92A631B2076E
:1002A000E1F70E944C0A0C94250B0C9400000E946C
:1002B000B103FDCF1F920F920FB60F9211242F930F
:1002C0003F934F935F936F937F938F939F93AF93DE
:1002D000BF9380911101882351F180910401909185
:1002E0000501892B09F481C0409104015091050159
:1002F0009A0136952795ABE7B4E10E94040B9695D9
:10030000879562E3689F9001699F300D1124421721
:10031000530721F48BB191E089278BB980910401B7
:1003200090910501019790930501809304018091BC
:100330001001882389F08091020190910301892B9B
:1003400009F44CC0589A80910201909103010197E1
:10035000909303018093020180910E01882359F14B
:100360008091000190910101892BA1F14091000140
:10037000509101019A013695279536952795ABE75F
:10038000B4E10E94040B9695879564E6689F9001FE
:10039000699F300D11244217530721F48BB191E06E
:1003A00089278BB980910001909101010197909369
:1003B000010180930001BF91AF919F918F917F9137
:1003C0006F915F914F913F912F910F900FBE0F90C2
:1003D0001F901895589810920E01EDCF58981092D2
:1003E000100181E080930F01B7CF5898109211014E
:1003F0009ECFE1E6F0E080E88083108211B89FEFA5
:1004000094B990E797B99FE09AB91DB810BA2EE059
:1004100022B998B98BB993EC9EB997E890937A007A
:1004200080937B00E1E8F0E080818A6080838FEC3C
:1004300097E09093890080938800EFE6F0E0808158
:1004400082608083789408958EE580937C008FE3AA
:100450009FE10197F1F700C0000080917A0080646D
:1004600080937A0080917A0086FDFCCF20917800FD
:100470003091790040E050E063EC7FEE80E190E065
:100480000E94BD0ACA01B9010895606460937C00AE
:1004900020917A00206420937A0020917A0026FD32
:1004A000FCCFA0917800B0917900FC0120813181CE
:1004B000428153810E941A0B2FEF33E040E050E05D
:1004C0000E94BD0ACA01B90108954F925F926F92CE
:1004D0007F928F929F92AF92BF92CF92DF92EF92D4
:1004E000FF92CF93DF93EC018EE580937C008FE346
:1004F0009FE10197F1F700C0000080917A008064CD
:1005000080937A0080917A0086FDFCCF209178005C
:100510003091790040E050E063EC7FEE80E190E0C4
:100520000E94BD0A69017A0183E480937C00809176
:100530007A00806480937A0080917A0086FDFCCFF7
:10054000A0917800B0917900A70196010E941A0B42
:100550002FEF33E040E050E00E94BD0A29013A014C
:1005600087E480937C0080917A00806480937A0095
:1005700080917A0086FDFCCFA0917800B09179003F
:10058000A70196010E941A0B2FEF33E040E050E0E4
:100590000E94BD0A49015A0186E480937C00809143
:1005A0007A00806480937A0080917A0086FDFCCF87
:1005B000A0917800B0917900A70196010E941A0BD2
:1005C0002FEF33E040E050E00E94BD0AD90128E05F
:1005D00038E00E94130B28EE33E040E050E00E9428
:1005E000DF0A2D5C3109C401821B930B9C0197FD2E
:1005F00081C0019B56C088819981029902C04D99A2
:100600006BC0039903C084609983888340910F0174
:10061000442319F08061998388834C9B03C08860D0
:10062000998388834C9903C08062998388832D388D
:1006300031401CF080649983888320E4421622E0D4
:1006400052066104710438F04FEF841646E09406B8
:10065000A104B104E8F586FD03C08068998388830E
:10066000309B02C031992BC021E049B1609B02C090
:1006700061991DC031E0211102C047FD3FC091606A
:1006800099838883DF91CF91FF90EF90DF90CF9097
:10069000BF90AF909F908F907F906F905F904F90A2
:1006A000089588819981816099838883A6CF669B0C
:1006B000E1CF3CB13095331F3327331FDCCF329B62
:1006C000D3CF26B123FB222720F931E02327CDCF3A
:1006D000806499838883BFCF4E9B93CF40E44416B8
:1006E00042E054066104710408F48BCF8260998360
:1006F000888387CF3195219531097BCF3111BFCFC9
:10070000C1CF599A299A2A9A88B1806788B90895E1
:100710002F982D9A2E9A2C9A2B9888B18F788064D6
:1007200088B9089581E0809310012C982F9A289819
:100730000895289A88B18F78806688B9089581E0F5
:10074000809311012B9A88B18F78806288B90895BF
:1007500081E080930E012B9888B18F78806388B9EF
:10076000089588B18F78806588B908951092110135
:100770008CED95E09093050180930401089510920B
:10078000100188E893E19093030180930201109295
:100790000F01089510920E0188EE93E090930101ED
:1007A00080930001089528B130E1839FC001112496
:1007B0002F78282B28B9089581E080930E012F9877
:1007C00059982D982E982C982B980E94D303FFCFE0
:1007D0000C946104CF93DF93EC012196FC0184918A
:1007E000882339F00E94D804FE018491219681115A
:1007F000F9CFDF91CF910895EF92FF920F931F935E
:10080000CF93DF93EC01E62E662391F1F12C02C029
:10081000FE14E0F40E947D048F3F2FEF9207F1F069
:100820008D30910599F08A30910581F09C0120521C
:1008300031092F35310560F78E010F5F1F4F888317
:100840000E94D804F394E801FE1420F38F2DDF9169
:10085000CF911F910F91FF90EF9008950E947A041D
:10086000882321F00E94C30780FDD2CF8FEFEFCF06
:1008700080E0EDCF1F93CF93DF93EC010E947A04C9
:10088000182F0E94C307812380FD04C0DF91CF9100
:100890001F9108950E94C104CE010E946502E8E202
:1008A000F1E08491882391F3C9E2D1E00E94D80459
:1008B000FE01849121968111F9CFDF91CF911F9193
:1008C000089581E88093D70080EA8093D80086E17C
:1008D00089BD09B400FEFDCF80E98093D800109255
:1008E000E00010921501109212018CE08093E2005A
:1008F000789408958091150108952FB7F894809108
:1009000015018823F9F083E08093E9008091E800E5
:1009100085FD0CC082FF16C09BE602C082FF12C09C
:100920009093E8008091E80085FFF8CF8091F10076
:100930009091E80095FD03C09BE69093E8002FBFDF
:1009400090E008952FBF8FEF9FEF08959FB7F89421
:1009500080911501882391F083E08093E9008091D4
:10096000F200811109C02091E80022FF07C025FD97
:1009700005C02BE62093E8009FBF089580E09FBF4D
:10098000089580911501882391F02FB7F89483E0A2
:100990008093E9008091E80085FF07C09BE6909373
:1009A000E8008091E80085FDFACF2FBF08950895F3
:1009B00090911501992309F443C09FB7F89424E05E
:1009C0002093E90020911301211132C03091E400FD
:1009D000375E2091E80025FD1CC09FBF9091E40088
:1009E000931781F190911501992351F144E009C0C9
:1009F0009FBF9091E400931729F1909115019923DD
:100A0000F9F09FB7F8944093E9002091E80025FFA2
:100A1000EFCF8093F1008091E80085FD03C08AE369
:100A20008093E80085E0809314019FBF80E00895E3
:100A30002091E80025FF03C010921301C7CF9FBF8C
:100A40008FEF089581E0809313018FEF08959091C7
:100A500015019923C1F02FB7F89494E09093E90021
:100A60009091E80095FF11C08093F1008091E8001B
:100A700085FD03C08AE38093E80085E0809314013C
:100A80002FBF80E008958FEF08952FBF8FEF089557
:100A9000CF92DF92FF920F931F93CF93DF936C015E
:100AA000CB01209115012223B9F1CFB7F89424E0AE
:100AB0002093E90020911301211137C0009709F418
:100AC00002C2D4E000E42AE3F22E15E03091E40003
:100AD000375E2091E80025FF0DC02EC02091150142
:100AE0002223D1F0CFB7F894D093E9002091E80009
:100AF00025FD22C0CFBF2091E4002313EFCF81E07A
:100B0000809313018FEFDF91CF911F910F91FF9091
:100B1000DF90CF900895CFBF8FEFDF91CF911F91DE
:100B20000F91FF90DF90CF9008952091E80025FF6E
:100B3000F2CF10921301C2CF2091F200402F421B3E
:100B4000242F30E08217930718F4482F9C01332795
:100B5000821B930B50E04134510510F0D601A1C126
:100B60004D5A5F4FFA010C94FE0AF6012081209342
:100B7000F10096012F5F3F4F6901F601208120931C
:100B8000F10096012F5F3F4F6901D6011196F601E2
:100B900020812093F1006D01FFEFCF1ADF0A2C9125
:100BA0002093F100D6011196F60120812093F100E7
:100BB0006D01FFEFCF1ADF0A2C912093F100D601CF
:100BC0001196F60120812093F1006D01FFEFCF1AFD
:100BD000DF0A2C912093F100D6011196F6012081B5
:100BE0002093F1006D01FFEFCF1ADF0A2C912093C3
:100BF000F100D6011196F60120812093F1006D01DC
:100C0000FFEFCF1ADF0A2C912093F100D601119645
:100C1000F60120812093F1006D01FFEFCF1ADF0A6A
:100C20002C912093F100D6011196F601208120939A
:100C3000F1006D01FFEFCF1ADF0A2C912093F10034
:100C4000D6011196F60120812093F1006D01FFEF8E
:100C5000CF1ADF0A2C912093F100D6011196F601EC
:100C600020812093F1006D01FFEFCF1ADF0A2C9154
:100C70002093F100D6011196F60120812093F10016
:100C80006D01FFEFCF1ADF0A2C912093F100D601FE
:100C90001196F60120812093F1006D01FFEFCF1A2C
:100CA000DF0A2C912093F100D6011196F6012081E4
:100CB0002093F1006D01FFEFCF1ADF0A2C912093F2
:100CC000F100D6011196F60120812093F1006D010B
:100CD000FFEFCF1ADF0A2C912093F100D601119675
:100CE000F60120812093F1006D01FFEFCF1ADF0A9A
:100CF0002C912093F100D6011196F60120812093CA
:100D0000F1006D01FFEFCF1ADF0A2C912093F10063
:100D1000D6011196F60120812093F1006D01FFEFBD
:100D2000CF1ADF0A2C912093F100D6011196F6011B
:100D300020812093F1006D01FFEFCF1ADF0A2C9183
:100D40002093F100D6011196F60120812093F10045
:100D50006D01FFEFCF1ADF0A2C912093F100D6012D
:100D60001196F60120812093F1006D01FFEFCF1A5B
:100D7000DF0A2C912093F100D6011196F601208113
:100D80002093F1006D01FFEFCF1ADF0A2C91209321
:100D9000F100D6011196F60120812093F1006D013A
:100DA000FFEFCF1ADF0A2C912093F100D6011196A4
:100DB000F60120812093F1006D01FFEFCF1ADF0AC9
:100DC0002C912093F100D6011196F60120812093F9
:100DD000F1006D01FFEFCF1ADF0A2C912093F10093
:100DE000D6011196F60120812093F1006D01FFEFED
:100DF000CF1ADF0A2C912093F100D6011196F6014B
:100E000020812093F1006D01FFEFCF1ADF0A2C91B2
:100E10002093F100D6011196F60120812093F10074
:100E20006D01FFEFCF1ADF0A2C912093F100D6015C
:100E30001196F60120812093F1006D01FFEFCF1A8A
:100E4000DF0A2C912093F100D6011196F601208142
:100E50002093F1006D01FFEFCF1ADF0A2C91209350
:100E6000F100D6011196F60120812093F1006D0169
:100E7000FFEFCF1ADF0A2C912093F100D6011196D3
:100E8000F60120812093F1006D01FFEFCF1ADF0AF8
:100E90002C912093F100D6011196F6012081209328
:100EA000F1006D01FFEFCF1ADF0A2C912093F100C2
:100EB0002091E80025FFF092E80010931401CFBFC5
:100EC000009709F003CE80E028CED6018FCFD6015F
:100ED00080CFD60171CFD601E0CED601EBCED601C0
:100EE0005ACED60165CED6018ACED60195CED60190
:100EF0006CCED60177CED60111CFD60102CFD60166
:100F0000F3CED601E4CED6014ACFD6013BCFD601EF
:100F10002CCFD6011DCFD6010ECFD6019BCFD60147
:100F20008CCFD6017DCFD6016ECFD601ADCFD60105
:100F30009ECFD60198CED601A3CED6017ACED601C9
:100F400085CE8FB7F89490911401992341F094E0E5
:100F50009093E9009AE39093E800109214018FBFF8
:100F600008956091060170910701809108019091A8
:100F70000901089580910A01089580910B01089557
:100F800080910C0108958091120108952FB7F89473
:100F900090911501992311F192E09093E9009091BD
:100FA000E80095FF1BC091EA9093F10090E29093C6
:100FB000F1001092F1001092F1001092F1001092E5
:100FC000F10091E09093F1001092F1008093F10014
:100FD0008AE38093E8002FBF80E008952FBF8FEF52
:100FE00008951F920F920FB60F9211248F939F9323
:100FF0008091E1001092E10083FF11C01092E9009E
:1010000091E09093EB001092EC0092E19093ED0050
:1010100098E09093F000109215011092120182FF57
:1010200013C080911501882379F0809114018823E1
:1010300059F0815080931401811106C084E080939F
:10104000E9008AE38093E8009F918F910F900FBE93
:101050000F901F9018951F920F920FB60F921124A8
:101060000BB60F922F933F934F935F936F937F93A2
:101070008F939F93AF93BF93EF93FF931092E900E9
:101080008091E80083FF2BC06091F1004091F10056
:101090008091F1002091F10090E0922B2091F100DD
:1010A0005091F10030E0352BB091F100A091F100AA
:1010B00052EF5093E800463009F44EC0453009F431
:1010C00026C1493009F4BCC0483009F42BC1413273
:1010D00009F45EC1403209F0B8C16132B1F081E279
:1010E0008093EB00FF91EF91BF91AF919F918F9112
:1010F0007F916F915F914F913F912F910F900BBE18
:101100000F900FBE0F901F9018958091E80082FFFE
:10111000FCCF8091F100809306018091F1008093D3
:1011200007018091F100809308018091F100809384
:1011300009018091F10080930A018091F100809370
:101140000B018091F10080930C018BEF8093E800FC
:101150008EEF8093E800C6CFE3EAF1E04591549129
:101160008417950709F43FC14AEA51E0FA016591F5
:1011700074918617970709F441C1495F5F4FFA01DF
:10118000659174918617970709F441C1495F5F4FD4
:10119000FA01659174918617970709F441C1495F77
:1011A0005F4FFA01659174918617970709F441C161
:1011B000495F5F4FFA01659174918617970709F0AF
:1011C0008ECFFA013296859194912817390709F04C
:1011D00086CFFA01349625913491FA0136964491DE
:1011E0008B2F90E09A2B8F3F910519F010F08FEF25
:1011F00090E0841708F4482F6EEF8091E800982F54
:101200009570D9F382FD6ECF542F413108F4E6C0BA
:1012100050E1F901852F94919093F100815031961E
:101220008111F9CF8FEF850F90E00196280F391FBC
:10123000451B6093E8004111E0CF5031F1F252CFED
:10124000611172C080931501109212011092140165
:101250008EEF8093E80081E08093E900E2E6F2E01F
:10126000E491E093EB00EE2309F4ECC0E3E6F2E056
:10127000E491E093EC00E4E6F2E0E491E093ED0029
:1012800025E632E082E08093E900C9010196F90188
:1012900044914093EB00442351F0FC0184918093EE
:1012A000EC00C9010396319624912093ED0023E0D0
:1012B0002093E9009C012F5F3F4FFC014491409334
:1012C000EB00442359F0F90124912093EC009C0198
:1012D0002D5F3F4F319684918093ED0084E08093A1
:1012E000E900C9010196F90144914093EB004423C0
:1012F00041F0FC0184918093EC003196249120937D
:10130000ED008EE18093EA001092EA00EBCE2EEF22
:101310002093E8002091E80020FFFCCF80688093B4
:10132000E300E0CE603841F1542F5D7F513009F089
:10133000D6CE623009F0D3CE892B09F0D0CE2F77EC
:101340008FEF820F843008F0CACE8EEF8093E800D2
:101350002093E900433009F4C2CE89E18093EB0089
:1013600081E090E0022E01C0880F0A94EAF7809392
:10137000EA001092EA00B6CE8091E80080FFFCCF30
:10138000809115018093F1008EEF8093E800AACE42
:10139000613A51F68091E80080FFFCCF8091060110
:1013A0008093F100809107018093F1008091080102
:1013B0008093F100809109018093F10080910A01EE
:1013C0008093F10080910B018093F10080910C01DA
:1013D0008093F1008EEF8093E80084CE411119CF05
:1013E0006093E8007FCEE5EAF1E04591549124173F
:1013F000350709F0B9CE43EA51E0EBCEFA01329657
:10140000659174912617370709F0B7CEE2CEFA013D
:101410003296659174912617370709F0B7CED9CE69
:10142000FA013296659174912617370709F0B7CE05
:10143000D0CEFA013296659174912617370709F0DC
:10144000B7CEC7CE23E632E01DCF423269F4613217
:1014500009F045CE809312018091E80080FFFCCF17
:101460008EEF8093E8003ECE41115ECF8091E80080
:1014700080FFFCCF623831F080E08093F100109261
:10148000F100EECF2093E9008091EB0085FB8827E7
:1014900080F91092E900F1CFCF93DF9300D0CDB760
:1014A000DEB71A8219820E94F90110E01A821982AD
:1014B000CE0101960E946502812F90E08730910550
:1014C00028F4FC01E45BFF4F0C94FE0A0E94B10378
:1014D0000E94B103FBCF0E94A80329813A8127FF14
:1014E00042C00E94CA0389819A8112E090FFDECF38
:1014F00016E0DCCF0E94990389819A8185FFF6CF9F
:1015000013E0F4CF0E94920389819A8184FF2DC059
:1015100085FD2DC014E00E94BF0389819A81E6CF2A
:101520000E949F0389819A819C012C703327232B71
:1015300001F186FD20C011E00E94B60389819A81E5
:10154000D5CF0E94880389819A8181FD12E083FFB3
:10155000CDCF13E0CBCF0E94810319811170A6CFAC
:101560000E94DC03FFCFC901C1CF85FFBFCF11E0CF
:10157000D2CF86FFBBCF15E0DFCFA1E21A2EAA1B88
:10158000BB1BFD010DC0AA1FBB1FEE1FFF1FA21733
:10159000B307E407F50720F0A21BB30BE40BF50B30
:1015A000661F771F881F991F1A9469F760957095B9
:1015B000809590959B01AC01BD01CF010895052E4A
:1015C00097FB1EF400940E94F60A57FD07D00E9474
:1015D000BD0A07FC03D04EF40C94F60A50954095D2
:1015E000309521953F4F4F4F5F4F089590958095CF
:1015F000709561957F4F8F4F9F4F0895EE0FFF1F9E
:101600000590F491E02D0994A29FB001B39FC00111
:10161000A39F700D811D1124911DB29F700D811D1E
:101620001124911D08950E94040BB7FF0895821B99
:10163000930B08950E94040BA59F900DB49F900DED
:0E164000A49F800D911D11240895F894FFCFF2
:0E164E00E8038813DC0500E10000000008003E
:00000001FF
