:100000000C944C000C9456000C9456000C94560022
:100010000C9456000C9456000C9456000C94560008
:100020000C9456000C9456000C9456000C945600F8
:100030000C9456000C9456000C9456000C945600E8
:100040000C9456000C9456000C9456000C945600D8
:100050000C9456000C9456000C9456000C945600C8
:100060000C9456000C9456000C9456000C945600B8
:100070000C9456000C9456000C9456000C945600A8
:100080000C9456000C9456000C9456000C94560098
:100090000C9456000C94560011241FBECFEFD0E2F2
:1000A000DEBFCDBF0E9481000C94D6000C940000EE
:1000B000FFCFE1E6F0E080E88083108211B89EEF88
:1000C00094B990E397B99FE09AB91DB810BA9FEF21
:1000D00091BB97E890937A0080937B0008958064A9
:1000E00080937C0080917A00806480937A00809174
:1000F0007A0086FDFCCF8091780090917900089578
:100100000895CF93DF9300D01F92CDB7DEB781E083
:1001100090E09A8389830E94590020E001E010E07A
:100120001A830983CE0101962B830E9480002B81C4
:100130002230A1F030F0243041F108F1253099F55A
:10014000FFCF222341F12130C9F489819A81823085
:10015000910551F1049721F723E0E2CF89819A813B
:100160008130910581F08430910569F086309105E8
:1001700081F007970297A0F625E0D2CFFFCF8981C3
:100180009A81059769F621E0CBCF89819A810997F9
:1001900059F024E0C5CF21E089819A81019709F4C3
:1001A000BFCF20E0BDCFEACF22E0BACFF894FFCF97
:00000001FF
