:100000000C9436010C9455010C9455010C94550137
:100010000C9455010C9455010C9455010C94550108
:100020000C9455010C9455010C9449080C948308C8
:100030000C9455010C9455010C9455010C945501E8
:100040000C9455010C945A010C9455010C945501D3
:100050000C9455010C9455010C9455010C945501C8
:100060000C9455010C9455010C9455010C945501B8
:100070000C9455010C9455010C9455010C945501A8
:100080000C9455010C9455010C9455010C94550198
:100090000C9455010C9455010C0B020BF30AE60A63
:1000A000DA0ACC0ABB0AB0070606A307ED079607D3
:1000B000EF078907E5077C07E7076F07E90762078E
:1000C000EB075507BD074807BF073B07C1072E07CA
:1000D000DB072107DD071407DF070707E107FA063B
:1000E000E307ED06D307E006D507D306D707C60614
:1000F000D907B906C507AC06C3079F06F3079206E2
:10010000F1078506F7077806F5076B06CD075E064B
:10011000CB075106D1074406CF073706C9072A0681
:10012000C7071D0615060D060D0A53757065727614
:1001300069736F727920436F6D70757465722053A7
:10014000657269616C5465726D696E616C20496E8F
:10015000746572666163650D0A0D0A737461746576
:10016000203A207072696E742063757272656E74C5
:100170002076656869636C652073746174650D0A27
:100180006576656E743D48565F5550203A2073651C
:1001900074206576656E7420746F2048565F5550E4
:1001A0000D0A0000010000500212000200000D02C2
:1001B000430003000009020401030904F3011402CF
:1001C000030904DB011603030904CD010C0C033100
:1001D0000032003300340035000000160355005390
:1001E0000042002000530065007200690061006C4D
:1001F000000000140359006F007500720020004ECB
:100200000061006D00650000000403090409024359
:1002100000020100C03209040000010202010005D1
:10022000240010010524010101042402060524060E
:1002300000010705820310004009040100020A00C2
:10024000000007050302400000070584024000008B
:100250001201000202000010C0167A04000101021F
:1002600003010001C11201803601813611241FBE35
:10027000CFEFD0E2DEBFCDBF11E0A0E0B1E0EAE019
:10028000F7E100E00BBF02C007900D92AE30B1075E
:10029000D9F721E0AEE0B1E001C01D92A731B2076D
:1002A000E1F70E94A40A0C94830B0C9400000E94B6
:1002B0000004FDCF1F920F920FB60F9211242F93BF
:1002C0003F934F935F936F937F938F939F93AF93DE
:1002D000BF9380911101882351F180910401909185
:1002E0000501892B09F481C0409104015091050159
:1002F0009A0136952795ABE7B4E10E94620B96957B
:10030000879562E3689F9001699F300D1124421721
:10031000530721F48BB191E089278BB980910401B7
:1003200090910501019790930501809304018091BC
:100330001001882389F08091020190910301892B9B
:1003400009F44CC0589A80910201909103010197E1
:10035000909303018093020180910E01882359F14B
:100360008091000190910101892BA1F14091000140
:10037000509101019A013695279536952795ABE75F
:10038000B4E10E94620B9695879564E6689F9001A0
:10039000699F300D11244217530721F48BB191E06E
:1003A00089278BB980910001909101010197909369
:1003B000010180930001BF91AF919F918F917F9137
:1003C0006F915F914F913F912F910F900FBE0F90C2
:1003D0001F901895589810920E01EDCF58981092D2
:1003E000100181E080930F01B7CF5898109211014E
:1003F0009ECFE1E6F0E080E88083108211B89FEFA5
:1004000094B990E797B99FE09AB91DB810BA2EE059
:1004100022B998B98BB993EC9EB997E890937A007A
:1004200080937B00E1E8F0E080818A6080838FEC3C
:1004300097E09093890080938800EFE6F0E0808158
:1004400082608083789408958EE580937C008FE3AA
:100450009FE10197F1F700C0000080917A0080646D
:1004600080937A0080917A0086FDFCCF20917800FD
:100470003091790040E050E063EC7FEE80E190E065
:100480000E941B0BCA01B9010895606460937C004F
:1004900020917A00206420937A0020917A0026FD32
:1004A000FCCFA0917800B0917900FC0120813181CE
:1004B000428153810E94780B2FEF33E040E050E0FF
:1004C0000E941B0BCA01B90108954F925F926F926F
:1004D0007F928F929F92AF92BF92CF92DF92EF92D4
:1004E000FF920F931F93CF93DF938C018EE5809340
:1004F0007C008FE39FE10197F1F700C0000080913D
:100500007A00806480937A0080917A0086FDFCCF27
:10051000209178003091790040E050E063EC7FEE6C
:1005200080E190E00E941B0B69017A0182E48093D4
:100530007C0080917A00806480937A0080917A00B8
:1005400086FDFCCFA0917800B0917900A7019601BB
:100550000E94780B2FEF33E040E050E00E941B0B2D
:1005600029013A0187E480937C0080917A008064BD
:1005700080937A0080917A0086FDFCCFA09178006C
:10058000B0917900A70196010E94780B2FEF33E01C
:1005900040E050E00E941B0B49015A0186E4809321
:1005A0007C0080917A00806480937A0080917A0048
:1005B00086FDFCCFA0917800B0917900F801019BF5
:1005C00084C0C081D181029902C04D9989C003992C
:1005D00004C0C460F801D183C08380910F018823D7
:1005E00021F0C061F801D183C0834C9B04C0C86076
:1005F000F801D183C0834C9904C0C062F801D18353
:10060000C083F9EE8F16F3E09F06A104B10400F158
:10061000A70196010E94780B2FEF33E040E050E0F5
:100620000E941B0BD9012AEB37E00E94710B28EEC8
:1006300033E040E050E00E943D0B22543109C401F8
:10064000821B930B97FD77C08D3891400CF043C00F
:10065000F1E94F16F1E05F066104710440F02FEFFD
:10066000821626E09206A104B10408F057C0C6FD28
:1006700004C0C068F801D183C083309B02C03199A7
:1006800044C081E029B1609B02C0619936C091E00D
:10069000811102C027FD4BC0D160F801D183C08316
:1006A000789B41C010921201DF91CF911F910F9161
:1006B000FF90EF90DF90CF90BF90AF909F908F9082
:1006C0007F906F905F904F900895C081D181C160FD
:1006D000D183C08378CFC064F801D183C083B8CF01
:1006E0004E9B75CF411451046104710409F46FCF1E
:1006F000C260F801D183C0836ACF669BC8CF9CB12A
:100700009095991F9927991FC3CF329BBACF86B175
:1007100083FB882780F991E08927B4CFC064F80172
:10072000D183C083A4CF81E080931201BDCF9923F0
:1007300009F4B6CFB1CF9195819591098D3891404B
:100740000CF486CFC8CF599A299A2A9A809112011F
:10075000811104C088B1806788B9089588B18F7805
:10076000806588B908952F982D9A2E9A2C9A2B98E7
:1007700080911201811105C088B18F78806488B999
:10078000089588B18F78806588B9089581E0809355
:1007900010012C982F9A28980895289A8091120178
:1007A000811105C088B18F78806688B9089588B1B5
:1007B0008F78806588B9089581E0809311012B9A24
:1007C00080911201811105C088B18F78806288B94B
:1007D000089588B18F78806588B9089581E0809305
:1007E0000E012B9880911201811105C088B18F787C
:1007F000806388B9089588B18F78806588B9089535
:1008000088B18F78806588B90895109211018CEDB8
:1008100095E09093050180930401089510921001D2
:1008200088E893E1909303018093020110920F01F5
:10083000089510920E0188EE93E090930101809349
:100840000001089590911201911109C028B130E181
:10085000839FC00111242F78282B28B9089588B1CF
:100860008F78806588B9089581E080930E012F9874
:1008700059982D982E982C982B980E942204FFCFDF
:100880000C94B904CF93DF93EC012196FC01849181
:10089000882339F00E943005FE0184912196811150
:1008A000F9CFDF91CF910895EF92FF920F931F93AD
:1008B000CF93DF93EC01E62E662391F1F12C02C079
:1008C000FE14E0F40E94D5048F3F2FEF9207F1F061
:1008D0008D30910599F08A30910581F09C0120526C
:1008E00031092F35310560F78E010F5F1F4F888367
:1008F0000E943005F394E801FE1420F38F2DDF9160
:10090000CF911F910F91FF90EF9008950E94D20414
:10091000882321F00E941B0880FDD2CF8FEFEFCFFC
:1009200080E0EDCF1F93CF93DF93EC010E94D204C0
:10093000182F0E941B08812380FD04C0DF91CF91F6
:100940001F9108950E941905CE010E946502E8E2F8
:10095000F1E08491882391F3C9E2D1E00E9430054F
:10096000FE01849121968111F9CFDF91CF911F91E2
:10097000089581E88093D70080EA8093D80086E1CB
:1009800089BD09B400FEFDCF80E98093D8001092A4
:10099000E00010921601109213018CE08093E200A7
:1009A000789408958091160108952FB7F894809156
:1009B00016018823F9F083E08093E9008091E80034
:1009C00085FD0CC082FF16C09BE602C082FF12C0EC
:1009D0009093E8008091E80085FFF8CF8091F100C6
:1009E0009091E80095FD03C09BE69093E8002FBF2F
:1009F00090E008952FBF8FEF9FEF08959FB7F89471
:100A000080911601882391F083E08093E900809122
:100A1000F200811109C02091E80022FF07C025FDE6
:100A200005C02BE62093E8009FBF089580E09FBF9C
:100A3000089580911601882391F02FB7F89483E0F0
:100A40008093E9008091E80085FF07C09BE69093C2
:100A5000E8008091E80085FDFACF2FBF0895089542
:100A600090911601992309F443C09FB7F89424E0AC
:100A70002093E90020911401211132C03091E4004B
:100A8000375E2091E80025FD1CC09FBF9091E400D7
:100A9000931781F190911601992351F144E009C017
:100AA0009FBF9091E400931729F19091160199232B
:100AB000F9F09FB7F8944093E9002091E80025FFF2
:100AC000EFCF8093F1008091E80085FD03C08AE3B9
:100AD0008093E80085E0809315019FBF80E0089532
:100AE0002091E80025FF03C010921401C7CF9FBFDB
:100AF0008FEF089581E0809314018FEF0895909116
:100B000016019923C1F02FB7F89494E09093E9006F
:100B10009091E80095FF11C08093F1008091E8006A
:100B200085FD03C08AE38093E80085E0809315018A
:100B30002FBF80E008958FEF08952FBF8FEF0895A6
:100B4000CF92DF92FF920F931F93CF93DF936C01AD
:100B5000CB01209116012223B9F1CFB7F89424E0FC
:100B60002093E90020911401211137C0009709F466
:100B700002C2D4E000E42AE3F22E15E03091E40052
:100B8000375E2091E80025FF0DC02EC02091160190
:100B90002223D1F0CFB7F894D093E9002091E80058
:100BA00025FD22C0CFBF2091E4002313EFCF81E0C9
:100BB000809314018FEFDF91CF911F910F91FF90E0
:100BC000DF90CF900895CFBF8FEFDF91CF911F912E
:100BD0000F91FF90DF90CF9008952091E80025FFBE
:100BE000F2CF10921401C2CF2091F200402F421B8D
:100BF000242F30E08217930718F4482F9C013327E5
:100C0000821B930B50E04134510510F0D601A1C175
:100C10004D5A5F4FFA010C945C0BF6012081209332
:100C2000F10096012F5F3F4F6901F601208120936B
:100C3000F10096012F5F3F4F6901D6011196F60131
:100C400020812093F1006D01FFEFCF1ADF0A2C9174
:100C50002093F100D6011196F60120812093F10036
:100C60006D01FFEFCF1ADF0A2C912093F100D6011E
:100C70001196F60120812093F1006D01FFEFCF1A4C
:100C8000DF0A2C912093F100D6011196F601208104
:100C90002093F1006D01FFEFCF1ADF0A2C91209312
:100CA000F100D6011196F60120812093F1006D012B
:100CB000FFEFCF1ADF0A2C912093F100D601119695
:100CC000F60120812093F1006D01FFEFCF1ADF0ABA
:100CD0002C912093F100D6011196F60120812093EA
:100CE000F1006D01FFEFCF1ADF0A2C912093F10084
:100CF000D6011196F60120812093F1006D01FFEFDE
:100D0000CF1ADF0A2C912093F100D6011196F6013B
:100D100020812093F1006D01FFEFCF1ADF0A2C91A3
:100D20002093F100D6011196F60120812093F10065
:100D30006D01FFEFCF1ADF0A2C912093F100D6014D
:100D40001196F60120812093F1006D01FFEFCF1A7B
:100D5000DF0A2C912093F100D6011196F601208133
:100D60002093F1006D01FFEFCF1ADF0A2C91209341
:100D7000F100D6011196F60120812093F1006D015A
:100D8000FFEFCF1ADF0A2C912093F100D6011196C4
:100D9000F60120812093F1006D01FFEFCF1ADF0AE9
:100DA0002C912093F100D6011196F6012081209319
:100DB000F1006D01FFEFCF1ADF0A2C912093F100B3
:100DC000D6011196F60120812093F1006D01FFEF0D
:100DD000CF1ADF0A2C912093F100D6011196F6016B
:100DE00020812093F1006D01FFEFCF1ADF0A2C91D3
:100DF0002093F100D6011196F60120812093F10095
:100E00006D01FFEFCF1ADF0A2C912093F100D6017C
:100E10001196F60120812093F1006D01FFEFCF1AAA
:100E2000DF0A2C912093F100D6011196F601208162
:100E30002093F1006D01FFEFCF1ADF0A2C91209370
:100E4000F100D6011196F60120812093F1006D0189
:100E5000FFEFCF1ADF0A2C912093F100D6011196F3
:100E6000F60120812093F1006D01FFEFCF1ADF0A18
:100E70002C912093F100D6011196F6012081209348
:100E8000F1006D01FFEFCF1ADF0A2C912093F100E2
:100E9000D6011196F60120812093F1006D01FFEF3C
:100EA000CF1ADF0A2C912093F100D6011196F6019A
:100EB00020812093F1006D01FFEFCF1ADF0A2C9102
:100EC0002093F100D6011196F60120812093F100C4
:100ED0006D01FFEFCF1ADF0A2C912093F100D601AC
:100EE0001196F60120812093F1006D01FFEFCF1ADA
:100EF000DF0A2C912093F100D6011196F601208192
:100F00002093F1006D01FFEFCF1ADF0A2C9120939F
:100F1000F100D6011196F60120812093F1006D01B8
:100F2000FFEFCF1ADF0A2C912093F100D601119622
:100F3000F60120812093F1006D01FFEFCF1ADF0A47
:100F40002C912093F100D6011196F6012081209377
:100F5000F1006D01FFEFCF1ADF0A2C912093F10011
:100F60002091E80025FFF092E80010931501CFBF13
:100F7000009709F003CE80E028CED6018FCFD601AE
:100F800080CFD60171CFD601E0CED601EBCED6010F
:100F90005ACED60165CED6018ACED60195CED601DF
:100FA0006CCED60177CED60111CFD60102CFD601B5
:100FB000F3CED601E4CED6014ACFD6013BCFD6013F
:100FC0002CCFD6011DCFD6010ECFD6019BCFD60197
:100FD0008CCFD6017DCFD6016ECFD601ADCFD60155
:100FE0009ECFD60198CED601A3CED6017ACED60119
:100FF00085CE8FB7F89490911501992341F094E034
:101000009093E9009AE39093E800109215018FBF46
:1010100008956091060170910701809108019091F7
:101020000901089580910A01089580910B010895A6
:1010300080910C0108958091130108952FB7F894C1
:1010400090911601992311F192E09093E90090910B
:10105000E80095FF1BC091EA9093F10090E2909315
:10106000F1001092F1001092F1001092F100109234
:10107000F10091E09093F1001092F1008093F10063
:101080008AE38093E8002FBF80E008952FBF8FEFA1
:1010900008951F920F920FB60F9211248F939F9372
:1010A0008091E1001092E10083FF11C01092E900ED
:1010B00091E09093EB001092EC0092E19093ED00A0
:1010C00098E09093F000109216011092130182FFA5
:1010D00013C080911601882379F08091150188232F
:1010E00059F0815080931501811106C084E08093EE
:1010F000E9008AE38093E8009F918F910F900FBEE3
:101100000F901F9018951F920F920FB60F921124F7
:101110000BB60F922F933F934F935F936F937F93F1
:101120008F939F93AF93BF93EF93FF931092E90038
:101130008091E80083FF2BC06091F1004091F100A5
:101140008091F1002091F10090E0922B2091F1002C
:101150005091F10030E0352BB091F100A091F100F9
:1011600052EF5093E800463009F44EC0453009F480
:1011700026C1493009F4BCC0483009F42BC14132C2
:1011800009F45EC1403209F0B8C16132B1F081E2C8
:101190008093EB00FF91EF91BF91AF919F918F9161
:1011A0007F916F915F914F913F912F910F900BBE67
:1011B0000F900FBE0F901F9018958091E80082FF4E
:1011C000FCCF8091F100809306018091F100809323
:1011D00007018091F100809308018091F1008093D4
:1011E00009018091F10080930A018091F1008093C0
:1011F0000B018091F10080930C018BEF8093E8004C
:101200008EEF8093E800C6CFE3EAF1E04591549178
:101210008417950709F43FC14AEA51E0FA01659144
:1012200074918617970709F441C1495F5F4FFA012E
:10123000659174918617970709F441C1495F5F4F23
:10124000FA01659174918617970709F441C1495FC6
:101250005F4FFA01659174918617970709F441C1B0
:10126000495F5F4FFA01659174918617970709F0FE
:101270008ECFFA013296859194912817390709F09B
:1012800086CFFA01349625913491FA01369644912D
:101290008B2F90E09A2B8F3F910519F010F08FEF74
:1012A00090E0841708F4482F6EEF8091E800982FA3
:1012B0009570D9F382FD6ECF542F413108F4E6C00A
:1012C00050E1F901852F94919093F100815031966E
:1012D0008111F9CF8FEF850F90E00196280F391F0C
:1012E000451B6093E8004111E0CF5031F1F252CF3D
:1012F000611172C0809316011092130110921501B2
:101300008EEF8093E80081E08093E900E2E6F2E06E
:10131000E491E093EB00EE2309F4ECC0E3E6F2E0A5
:10132000E491E093EC00E4E6F2E0E491E093ED0078
:1013300025E632E082E08093E900C9010196F901D7
:1013400044914093EB00442351F0FC01849180933D
:10135000EC00C9010396319624912093ED0023E01F
:101360002093E9009C012F5F3F4FFC014491409383
:10137000EB00442359F0F90124912093EC009C01E7
:101380002D5F3F4F319684918093ED0084E08093F0
:10139000E900C9010196F90144914093EB0044230F
:1013A00041F0FC0184918093EC00319624912093CC
:1013B000ED008EE18093EA001092EA00EBCE2EEF72
:1013C0002093E8002091E80020FFFCCF8068809304
:1013D000E300E0CE603841F1542F5D7F513009F0D9
:1013E000D6CE623009F0D3CE892B09F0D0CE2F773C
:1013F0008FEF820F843008F0CACE8EEF8093E80022
:101400002093E900433009F4C2CE89E18093EB00D8
:1014100081E090E0022E01C0880F0A94EAF78093E1
:10142000EA001092EA00B6CE8091E80080FFFCCF7F
:10143000809116018093F1008EEF8093E800AACE90
:10144000613A51F68091E80080FFFCCF809106015F
:101450008093F100809107018093F1008091080151
:101460008093F100809109018093F10080910A013D
:101470008093F10080910B018093F10080910C0129
:101480008093F1008EEF8093E80084CE411119CF54
:101490006093E8007FCEE5EAF1E04591549124178E
:1014A000350709F0B9CE43EA51E0EBCEFA013296A6
:1014B000659174912617370709F0B7CEE2CEFA018D
:1014C0003296659174912617370709F0B7CED9CEB9
:1014D000FA013296659174912617370709F0B7CE55
:1014E000D0CEFA013296659174912617370709F02C
:1014F000B7CEC7CE23E632E01DCF423269F4613267
:1015000009F045CE809313018091E80080FFFCCF65
:101510008EEF8093E8003ECE41115ECF8091E800CF
:1015200080FFFCCF623831F080E08093F1001092B0
:10153000F100EECF2093E9008091EB0085FB882736
:1015400080F91092E900F1CFCF93DF9300D0CDB7AF
:10155000DEB71A8219820E94F90110E0C12CD12C49
:1015600076011A821982CE0101960E946502898154
:101570009A8190FF03C00E943404FFCF87E0C81611
:10158000D10428F4F601E45BFF4F0C945C0B0E943D
:1015900000040E940004FBCF0E94EE03898187FFB4
:1015A000E0CF0E94190412E082E0C82ED12CE12C79
:1015B000F12CD7CF0E94CD03898185FFD2CF13E0D4
:1015C00093E0C92ED12CE12CF12CCBCF0E94C60385
:1015D000898184FF28C085FD28C014E00E940E0484
:1015E000C12ED12CBECF0E94DC0389819A819C013F
:1015F0002C703327232BD9F086FD1BC011E00E94ED
:10160000050407C00E94B303898181FD12E083FDB8
:10161000D6CFC12ED12CA5CF0E94A3031981117062
:10162000C12ED12C9ECF85FF9CCF11E0D7CF86FF56
:1016300098CF15E0E4CFA1E21A2EAA1BBB1BFD0137
:101640000DC0AA1FBB1FEE1FFF1FA217B307E407A1
:10165000F50720F0A21BB30BE40BF50B661F771FF9
:10166000881F991F1A9469F76095709580959095D9
:101670009B01AC01BD01CF010895052E97FB1EF41F
:1016800000940E94540B57FD07D00E941B0B07FCCF
:1016900003D04EF40C94540B509540953095219501
:1016A0003F4F4F4F5F4F089590958095709561958E
:1016B0007F4F8F4F9F4F0895EE0FFF1F0590F491BE
:1016C000E02D0994A29FB001B39FC001A39F700DAC
:1016D000811D1124911DB29F700D811D1124911D3A
:1016E00008950E94620BB7FF0895821B930B089523
:1016F0000E94620BA59F900DB49F900DA49F800D3A
:0A170000911D11240895F894FFCF05
:0E170A00E8038813DC0500E100000000080081
:00000001FF
