:100000000C942F010C944E010C944E010C944E0153
:100010000C944E010C944E010C944E010C944E0124
:100020000C944E010C944E010C9451070C948B07C8
:100030000C944E010C944E010C944E010C944E0104
:100040000C944E010C9453010C944E010C944E01EF
:100050000C944E010C944E010C944E010C944E01E4
:100060000C944E010C944E010C944E010C944E01D4
:100070000C944E010C944E010C944E010C944E01C4
:100080000C944E010C944E010C944E010C944E01B4
:100090000C944E010C944E01B8060E05AB06F50605
:1000A0009E06F7069106ED068406EF067706F10632
:1000B0006A06F3065D06C5065006C7064306C9066E
:1000C0003606E3062906E5061C06E7060F06E906DE
:1000D0000206EB06F505DB06E805DD06DB05DF06B7
:1000E000CE05E106C105CD06B405CB06A705FB0686
:1000F0009A05F9068D05FF068005FD067305D506F0
:100100006605D3065905D9064C05D7063F05D10625
:100110003205CF0625051D0515050D0A53757065B9
:10012000727669736F727920436F6D707574657242
:100130002053657269616C5465726D696E616C20E3
:10014000496E746572666163650D0A0D0A737461A8
:100150007465203A207072696E74206375727265DE
:100160006E742076656869636C652073746174656C
:100170000D0A6576656E743D48565F5550203A20ED
:10018000736574206576656E7420746F2048565FC1
:1001900055500D0A0000010000420212000200004A
:1001A000FF014300030000FB010401030904E50112
:1001B0001402030904CD011603030904BF010C0C4A
:1001C00003310032003300340035000000160355BF
:1001D0000053004200200053006500720069006176
:1001E000006C000000140359006F007500720020BD
:1001F000004E0061006D0065000000040309040961
:10020000024300020100C0320904000001020201A1
:100210000005240010010524010101042402060543
:1002200024060001070582031000400904010002B2
:100230000A00000007050302400000070584024091
:1002400000001201000202000010C0167A04000132
:10025000010203010001C11201803601813611241F
:100260001FBECFEFD0E2DEBFCDBF11E0A0E0B1E016
:10027000EAE6F4E100E00BBF02C007900D92AA305D
:10028000B107D9F721E0AAE0B1E001C01D92AF307B
:10029000B207E1F70E94AC090C94330A0C940000F9
:1002A0000E943103FDCF1F920F920FB60F921124BF
:1002B0002F933F934F935F936F937F938F939F936E
:1002C000AF93BF9380910A01882331F080910001A0
:1002D00090910101892B91F4589810920A01BF91D5
:1002E000AF919F918F917F916F915F914F913F91CE
:1002F0002F910F900FBE0F901F9018954091000105
:10030000509101019A0136952795ABE7B4E10E941F
:10031000190A9695879562E3689F9001699F300D51
:1003200011244217530721F48BB191E089278BB92F
:1003300080910001909101010197909301018093B8
:100340000001CDCFE1E6F0E080E88083108211B8B3
:100350009EEF94B990E797B99FE09AB91DB810BA8B
:100360002EE022B998B988B993E09EB99FEF91BB6E
:1003700097E890937A0080937B00E1E8F0E0808139
:100380008A6080838FEC97E0909389008093880047
:10039000EFE6F0E0808182608083789408958EE5B6
:1003A00080937C008FE39FE10197F1F700C000008C
:1003B00080917A00806480937A0080917A0086FD33
:1003C000FCCF209178003091790040E050E064EB60
:1003D0007BE281E190E00E94F109CA01B901089530
:1003E000606460937C0020917A00206420937A00FE
:1003F00020917A0026FDFCCFA0917800B091790081
:10040000FC0120813181428153810E94280A2FEF13
:1004100033E040E050E00E94F109CA01B9010895BB
:100420008F929F92AF92BF92CF92DF92EF92FF9204
:10043000CF93DF93EC018EE580937C008FE39FE107
:100440000197F1F700C0000080917A0080648093EA
:100450007A0080917A0086FDFCCF2091780030915F
:10046000790040E050E064EB7BE281E190E00E94A3
:10047000F10969017A0182E480937C0080917A001D
:10048000806480937A0080917A0086FDFCCF809111
:1004900078009091790086E480937C0080917A00C6
:1004A000806480937A0080917A0086FDFCCFA091D1
:1004B0007800B0917900A70196010E94280A2FEFD9
:1004C00033E040E050E00E94F10949015A0187E41D
:1004D00080937C0080917A00806480937A00809180
:1004E0007A0086FDFCCFA0917800B0917900A70139
:1004F00096010E94280A2FEF33E040E050E00E946E
:10050000F10984E480937C0080917A008064809378
:100510007A0080917A0086FDFCCF809178009091DE
:10052000790085E480937C0080917A0080648093D8
:100530007A0080917A0086FDFCCF809178009091BE
:100540007900821A930A019B40C08881998102999F
:1005500003C0826099838883039903C08460998370
:1005600088834C9B03C08860998388834C9903C01F
:1005700080619983888325EF821621E092061CF022
:1005800080629983888385FD03C080649983888312
:10059000309B02C0319927C021E049B1609B02C065
:1005A000619919C031E0211102C047FD25C0806862
:1005B00099838883DF91CF91FF90EF90DF90CF9068
:1005C000BF90AF909F908F900895888199818160AE
:1005D00099838883BCCF669BE5CF3CB13095331FB0
:1005E0003327331FE0CF329BD7CF26B123FB2227FF
:1005F00020F931E02327D1CF3111D9CFDBCF599A60
:10060000299A2A9A88B1806788B908952F982D9AD7
:100610002E9A2C9A2B9888B18F78806488B9089587
:100620002F9A2C9888B18F78806688B9089581E0D8
:1006300080930A012B9A88B18F78806288B90895D7
:100640002B9888B18F78806388B908952F9859982E
:100650002D982E982C982B9888B18F78806188B926
:10066000FFCF88B18F78806588B9089510920A010C
:100670008CED95E09093010180930001089528B1DD
:1006800030E1839FC00111242F78282B28B90895C9
:100690000C94C103CF93DF93EC012196FC0184916C
:1006A000882339F00E943804FE018491219681113B
:1006B000F9CFDF91CF910895EF92FF920F931F939F
:1006C000CF93DF93EC01E62E662391F1F12C02C06B
:1006D000FE14E0F40E94DD038F3F2FEF9207F1F04C
:1006E0008D30910599F08A30910581F09C0120525E
:1006F00031092F35310560F78E010F5F1F4F888359
:100700000E943804F394E801FE1420F38F2DDF914A
:10071000CF911F910F91FF90EF9008950E94DA03FF
:10072000882321F00E94230780FDD2CF8FEFEFCFE7
:1007300080E0EDCF1F93CF93DF93EC010E94DA03AB
:10074000182F0E942307812380FD04C0DF91CF91E1
:100750001F9108950E942104CE010E941002EAE137
:10076000F1E08491882391F3CBE1D1E00E94380439
:10077000FE01849121968111F9CFDF91CF911F91D4
:10078000089581E88093D70080EA8093D80086E1BD
:1007900089BD09B400FEFDCF80E98093D800109296
:1007A000E00010920E0110920B018CE08093E200A9
:1007B0007894089580910E0108952FB7F894809150
:1007C0000E018823F9F083E08093E9008091E8002E
:1007D00085FD0CC082FF16C09BE602C082FF12C0DE
:1007E0009093E8008091E80085FFF8CF8091F100B8
:1007F0009091E80095FD03C09BE69093E8002FBF21
:1008000090E008952FBF8FEF9FEF08959FB7F89462
:1008100080910E01882391F083E08093E90080911C
:10082000F200811109C02091E80022FF07C025FDD8
:1008300005C02BE62093E8009FBF089580E09FBF8E
:10084000089580910E01882391F02FB7F89483E0EA
:100850008093E9008091E80085FF07C09BE69093B4
:10086000E8008091E80085FDFACF2FBF0895089534
:1008700090910E01992309F443C09FB7F89424E0A6
:100880002093E90020910C01211132C03091E40045
:10089000375E2091E80025FD1CC09FBF9091E400C9
:1008A000931781F190910E01992351F144E009C011
:1008B0009FBF9091E400931729F190910E01992325
:1008C000F9F09FB7F8944093E9002091E80025FFE4
:1008D000EFCF8093F1008091E80085FD03C08AE3AB
:1008E0008093E80085E080930D019FBF80E008952C
:1008F0002091E80025FF03C010920C01C7CF9FBFD5
:100900008FEF089581E080930C018FEF089590910F
:100910000E019923C1F02FB7F89494E09093E90069
:100920009091E80095FF11C08093F1008091E8005C
:1009300085FD03C08AE38093E80085E080930D0184
:100940002FBF80E008958FEF08952FBF8FEF089598
:10095000CF92DF92FF920F931F93CF93DF936C019F
:10096000CB0120910E012223B9F1CFB7F89424E0F6
:100970002093E90020910C01211137C0009709F460
:1009800002C2D4E000E42AE3F22E15E03091E40044
:10099000375E2091E80025FF0DC02EC020910E018A
:1009A0002223D1F0CFB7F894D093E9002091E8004A
:1009B00025FD22C0CFBF2091E4002313EFCF81E0BB
:1009C00080930C018FEFDF91CF911F910F91FF90DA
:1009D000DF90CF900895CFBF8FEFDF91CF911F9120
:1009E0000F91FF90DF90CF9008952091E80025FFB0
:1009F000F2CF10920C01C2CF2091F200402F421B87
:100A0000242F30E08217930718F4482F9C013327D6
:100A1000821B930B50E04134510510F0D601A1C167
:100A2000445B5F4FFA010C94130AF6012081209376
:100A3000F10096012F5F3F4F6901F601208120935D
:100A4000F10096012F5F3F4F6901D6011196F60123
:100A500020812093F1006D01FFEFCF1ADF0A2C9166
:100A60002093F100D6011196F60120812093F10028
:100A70006D01FFEFCF1ADF0A2C912093F100D60110
:100A80001196F60120812093F1006D01FFEFCF1A3E
:100A9000DF0A2C912093F100D6011196F6012081F6
:100AA0002093F1006D01FFEFCF1ADF0A2C91209304
:100AB000F100D6011196F60120812093F1006D011D
:100AC000FFEFCF1ADF0A2C912093F100D601119687
:100AD000F60120812093F1006D01FFEFCF1ADF0AAC
:100AE0002C912093F100D6011196F60120812093DC
:100AF000F1006D01FFEFCF1ADF0A2C912093F10076
:100B0000D6011196F60120812093F1006D01FFEFCF
:100B1000CF1ADF0A2C912093F100D6011196F6012D
:100B200020812093F1006D01FFEFCF1ADF0A2C9195
:100B30002093F100D6011196F60120812093F10057
:100B40006D01FFEFCF1ADF0A2C912093F100D6013F
:100B50001196F60120812093F1006D01FFEFCF1A6D
:100B6000DF0A2C912093F100D6011196F601208125
:100B70002093F1006D01FFEFCF1ADF0A2C91209333
:100B8000F100D6011196F60120812093F1006D014C
:100B9000FFEFCF1ADF0A2C912093F100D6011196B6
:100BA000F60120812093F1006D01FFEFCF1ADF0ADB
:100BB0002C912093F100D6011196F601208120930B
:100BC000F1006D01FFEFCF1ADF0A2C912093F100A5
:100BD000D6011196F60120812093F1006D01FFEFFF
:100BE000CF1ADF0A2C912093F100D6011196F6015D
:100BF00020812093F1006D01FFEFCF1ADF0A2C91C5
:100C00002093F100D6011196F60120812093F10086
:100C10006D01FFEFCF1ADF0A2C912093F100D6016E
:100C20001196F60120812093F1006D01FFEFCF1A9C
:100C3000DF0A2C912093F100D6011196F601208154
:100C40002093F1006D01FFEFCF1ADF0A2C91209362
:100C5000F100D6011196F60120812093F1006D017B
:100C6000FFEFCF1ADF0A2C912093F100D6011196E5
:100C7000F60120812093F1006D01FFEFCF1ADF0A0A
:100C80002C912093F100D6011196F601208120933A
:100C9000F1006D01FFEFCF1ADF0A2C912093F100D4
:100CA000D6011196F60120812093F1006D01FFEF2E
:100CB000CF1ADF0A2C912093F100D6011196F6018C
:100CC00020812093F1006D01FFEFCF1ADF0A2C91F4
:100CD0002093F100D6011196F60120812093F100B6
:100CE0006D01FFEFCF1ADF0A2C912093F100D6019E
:100CF0001196F60120812093F1006D01FFEFCF1ACC
:100D0000DF0A2C912093F100D6011196F601208183
:100D10002093F1006D01FFEFCF1ADF0A2C91209391
:100D2000F100D6011196F60120812093F1006D01AA
:100D3000FFEFCF1ADF0A2C912093F100D601119614
:100D4000F60120812093F1006D01FFEFCF1ADF0A39
:100D50002C912093F100D6011196F6012081209369
:100D6000F1006D01FFEFCF1ADF0A2C912093F10003
:100D70002091E80025FFF092E80010930D01CFBF0D
:100D8000009709F003CE80E028CED6018FCFD601A0
:100D900080CFD60171CFD601E0CED601EBCED60101
:100DA0005ACED60165CED6018ACED60195CED601D1
:100DB0006CCED60177CED60111CFD60102CFD601A7
:100DC000F3CED601E4CED6014ACFD6013BCFD60131
:100DD0002CCFD6011DCFD6010ECFD6019BCFD60189
:100DE0008CCFD6017DCFD6016ECFD601ADCFD60147
:100DF0009ECFD60198CED601A3CED6017ACED6010B
:100E000085CE8FB7F89490910D01992341F094E02D
:100E10009093E9009AE39093E80010920D018FBF40
:100E200008956091020170910301809104019091F5
:100E300005010895809106010895809107010895A4
:100E400080910801089580910B0108952FB7F894BF
:100E500090910E01992311F192E09093E900909105
:100E6000E80095FF1BC091EA9093F10090E2909307
:100E7000F1001092F1001092F1001092F100109226
:100E8000F10091E09093F1001092F1008093F10055
:100E90008AE38093E8002FBF80E008952FBF8FEF93
:100EA00008951F920F920FB60F9211248F939F9364
:100EB0008091E1001092E10083FF11C01092E900DF
:100EC00091E09093EB001092EC0092E19093ED0092
:100ED00098E09093F00010920E0110920B0182FFA7
:100EE00013C080910E01882379F080910D01882331
:100EF00059F0815080930D01811106C084E08093E8
:100F0000E9008AE38093E8009F918F910F900FBED4
:100F10000F901F9018951F920F920FB60F921124E9
:100F20000BB60F922F933F934F935F936F937F93E3
:100F30008F939F93AF93BF93EF93FF931092E9002A
:100F40008091E80083FF2BC06091F1004091F10097
:100F50008091F1002091F10090E0922B2091F1001E
:100F60005091F10030E0352BB091F100A091F100EB
:100F700052EF5093E800463009F44EC0453009F472
:100F800026C1493009F4BCC0483009F42BC14132B4
:100F900009F45EC1403209F0B8C16132B1F081E2BA
:100FA0008093EB00FF91EF91BF91AF919F918F9153
:100FB0007F916F915F914F913F912F910F900BBE59
:100FC0000F900FBE0F901F9018958091E80082FF40
:100FD000FCCF8091F100809302018091F100809319
:100FE00003018091F100809304018091F1008093CE
:100FF00005018091F100809306018091F1008093BA
:1010000007018091F100809308018BEF8093E80045
:101010008EEF8093E800C6CFE5E9F1E04591549169
:101020008417950709F43FC14CE951E0FA01659135
:1010300074918617970709F441C1495F5F4FFA0120
:10104000659174918617970709F441C1495F5F4F15
:10105000FA01659174918617970709F441C1495FB8
:101060005F4FFA01659174918617970709F441C1A2
:10107000495F5F4FFA01659174918617970709F0F0
:101080008ECFFA013296859194912817390709F08D
:1010900086CFFA01349625913491FA01369644911F
:1010A0008B2F90E09A2B8F3F910519F010F08FEF66
:1010B00090E0841708F4482F6EEF8091E800982F95
:1010C0009570D9F382FD6ECF542F413108F4E6C0FC
:1010D00050E1F901852F94919093F1008150319660
:1010E0008111F9CF8FEF850F90E00196280F391FFE
:1010F000451B6093E8004111E0CF5031F1F252CF2F
:10110000611172C080930E0110920B0110920D01BB
:101110008EEF8093E80081E08093E900E4E5F2E05F
:10112000E491E093EB00EE2309F4ECC0E5E5F2E096
:10113000E491E093EC00E6E5F2E0E491E093ED0069
:1011400027E532E082E08093E900C9010196F901C8
:1011500044914093EB00442351F0FC01849180932F
:10116000EC00C9010396319624912093ED0023E011
:101170002093E9009C012F5F3F4FFC014491409375
:10118000EB00442359F0F90124912093EC009C01D9
:101190002D5F3F4F319684918093ED0084E08093E2
:1011A000E900C9010196F90144914093EB00442301
:1011B00041F0FC0184918093EC00319624912093BE
:1011C000ED008EE18093EA001092EA00EBCE2EEF64
:1011D0002093E8002091E80020FFFCCF80688093F6
:1011E000E300E0CE603841F1542F5D7F513009F0CB
:1011F000D6CE623009F0D3CE892B09F0D0CE2F772E
:101200008FEF820F843008F0CACE8EEF8093E80013
:101210002093E900433009F4C2CE89E18093EB00CA
:1012200081E090E0022E01C0880F0A94EAF78093D3
:10123000EA001092EA00B6CE8091E80080FFFCCF71
:1012400080910E018093F1008EEF8093E800AACE8A
:10125000613A51F68091E80080FFFCCF8091020155
:101260008093F100809103018093F100809104014B
:101270008093F100809105018093F1008091060137
:101280008093F100809107018093F1008091080123
:101290008093F1008EEF8093E80084CE411119CF46
:1012A0006093E8007FCEE7E9F1E04591549124177F
:1012B000350709F0B9CE45E951E0EBCEFA01329697
:1012C000659174912617370709F0B7CEE2CEFA017F
:1012D0003296659174912617370709F0B7CED9CEAB
:1012E000FA013296659174912617370709F0B7CE47
:1012F000D0CEFA013296659174912617370709F01E
:10130000B7CEC7CE25E532E01DCF423269F4613257
:1013100009F045CE80930B018091E80080FFFCCF5F
:101320008EEF8093E8003ECE41115ECF8091E800C1
:1013300080FFFCCF623831F080E08093F1001092A2
:10134000F100EECF2093E9008091EB0085FB882728
:1013500080F91092E900F1CFCF93DF9300D0CDB7A1
:10136000DEB71A8219820E94A20110E01A82198245
:10137000CE0101960E941002898187FF03C00E945E
:101380002603FFCF133089F038F51130E1F0123029
:10139000A9F40E94170389819A818C709927892B5F
:1013A00029F30E94360311E0E1CF0E9410038981E6
:1013B00084FFDCCF11E0DACF153009F30E94FF0281
:1013C00019811170D3CF0E940603898181FD12E03B
:1013D00083FFCCCF13E0CACF143071F70E942003F3
:1013E000C5CFA1E21A2EAA1BBB1BFD010DC0AA1F6F
:1013F000BB1FEE1FFF1FA217B307E407F50720F07E
:10140000A21BB30BE40BF50B661F771F881F991FF8
:101410001A9469F760957095809590959B01AC0141
:10142000BD01CF010895EE0FFF1F0590F491E02D4F
:101430000994A29FB001B39FC001A39F700D811DAD
:101440001124911DB29F700D811D1124911D0895CD
:101450000E94190AA59F900DB49F900DA49F800D26
:0A146000911D11240895F894FFCFA8
:0A146A00DC0500E1000000000800AE
:00000001FF
