:100000000C9453000C945D000C945D000C945D0006
:100010000C945D000C945D000C945D000C945D00EC
:100020000C945D000C945D000C945D000C945D00DC
:100030000C945D000C945D000C945D000C945D00CC
:100040000C945D000C945D000C945D000C945D00BC
:100050000C945D000C945D000C945D000C945D00AC
:100060000C945D000C945D000C945D000C945D009C
:100070000C945D000C945D000C945D000C945D008C
:100080000C945D000C945D000C945D000C945D007C
:100090000C945D000C945D00E500DF00D100BD0014
:1000A000B300A800ED0011241FBECFEFD0E2DEBFE9
:1000B000CDBF0E9488000C94FF000C940000FFCF7D
:1000C000E1E6F0E080E88083108211B89EEF94B9F9
:1000D00090E397B99FE09AB91DB810BA9FEF91BB12
:1000E00097E890937A0080937B00089580648093D2
:1000F0007C0080917A00806480937A0080917A00FD
:1001000086FDFCCF80917800909179000895089544
:10011000CF93DF9300D0CDB7DEB781E090E09A8334
:1001200089830E946000C12CD12C760101E010E08F
:100130001A830983CE0101960E94870087E0C816C2
:10014000D10408F0FFCFF601E45BFF4F0C94F900F7
:1001500089819A810A9709F441C095E0C92ED12C72
:10016000E12CF12CE5CF89819A81069709F782E08D
:10017000C82ED12CE12CF12CDBCF89819A818230E1
:100180009105A9F38530910591F38730910529F305
:100190000897029768F646E0C42ED12CE12CF12C8A
:1001A000C7CF89819A8183309105C1F0059709F005
:1001B000BFCF54E0C52ED12CE12CF12CB9CF8981D1
:1001C0009A81029709F0B4CFD2CF89819A810197A1
:1001D00059F0C12CD12C7601ABCFFFCF33E0C32E29
:1001E000D12CE12CF12CA4CFC12CD12C7601C394BD
:1001F0009FCFEE0FFF1F0590F491E02D0994F89426
:02020000FFCF2E
:00000001FF
