:100000000C942F010C944E010C944E010C944E0153
:100010000C944E010C944E010C944E010C944E0124
:100020000C944E010C944E010C94AD060C94E70612
:100030000C944E010C944E010C944E010C944E0104
:100040000C944E010C9451010C944E010C944E01F1
:100050000C944E010C944E010C944E010C944E01E4
:100060000C944E010C944E010C944E010C944E01D4
:100070000C944E010C944E010C944E010C944E01C4
:100080000C944E010C944E010C944E010C944E01B4
:100090000C944E010C944E0114066A040706510696
:1000A000FA055306ED054906E0054B06D3054D0656
:1000B000C6054F06B9052106AC0523069F05250692
:1000C00092053F0685054106780543066B05450602
:1000D0005E054706510537064405390637053B06D8
:1000E0002A053D061D0529061005270603055706A6
:1000F000F6045506E9045B06DC045906CF04310614
:10010000C2042F06B5043506A80433069B042D0649
:100110008E042B068104790471040D0A53757065F1
:10012000727669736F727920436F6D707574657242
:100130002053657269616C5465726D696E616C20E3
:10014000496E746572666163650D0A0D0A737461A8
:100150007465203A207072696E74206375727265DE
:100160006E742076656869636C652073746174656C
:100170000D0A6576656E743D48565F5550203A20ED
:10018000736574206576656E7420746F2048565FC1
:1001900055500D0A0000010000420212000200004A
:1001A000FF014300030000FB010401030904E50112
:1001B0001402030904CD011603030904BF010C0C4A
:1001C00003310032003300340035000000160355BF
:1001D0000053004200200053006500720069006176
:1001E000006C000000140359006F007500720020BD
:1001F000004E0061006D0065000000040309040961
:10020000024300020100C0320904000001020201A1
:100210000005240010010524010101042402060543
:1002200024060001070582031000400904010002B2
:100230000A00000007050302400000070584024091
:1002400000001201000202000010C0167A04000132
:10025000010203010001C11201803601813611241F
:100260001FBECFEFD0E2DEBFCDBF11E0A0E0B1E016
:10027000EAE1F3E100E00BBF02C007900D92A83065
:10028000B107D9F711E0A8E0B1E001C01D92AF308D
:10029000B107E1F70E940B090C948B090C94000044
:1002A000FFCF1F920F920FB60F9211248F939F933F
:1002B00080910A01882331F0809108019091090111
:1002C000892B51F4589810920A019F918F910F90A9
:1002D0000FBE0F901F901895589A80910801909129
:1002E0000901019790930901809308019F918F91D3
:1002F0000F900FBE0F901F901895E1E6F0E080E898
:100300008083108211B89EEF94B990E397B99FE073
:100310009AB91DB810BA9FEF91BB97E890937A00F5
:1003200080937B00E1E8F0E080818A6080838FEC3D
:1003300097E09093890080938800EFE6F0E0808159
:10034000826080830895806480937C0080917A002D
:10035000806480937A0080917A0086FDFCCF809142
:100360007800909179000895EF92FF920F931F9378
:10037000CF93DF93FC0182E480937C0080917A002C
:10038000806480937A0080917A0086FDFCCF609132
:1003900078007091790086E480937C0080917A00E7
:1003A000806480937A0080917A0086FDFCCF409132
:1003B00078005091790087E480937C0080917A00E6
:1003C000806480937A0080917A0086FDFCCFA091B2
:1003D0007800B091790084E480937C0080917A0069
:1003E000806480937A0080917A0086FDFCCF8091B2
:1003F00078009091790025E420937C0020917A0088
:10040000206420937A0020917A0026FDFCCFE090B2
:100410007800F09079000196880F991F880F991F36
:10042000880F991F01995CC020813181029954C0C5
:100430006739710508F050C04C9B03C028603183B8
:1004400020834C9903C0206131832083ED016F9795
:10045000C93CD34080F4EA01CC59DF4F1196AA0F72
:10046000BB1FAA0FBB1FAA0FBB1FCA1BDB0BC93CBC
:10047000D10508F03FC06536710518F04B3F5105B6
:10048000A8F54817590720F1C7010196880F991F51
:10049000880F991F880F991F84179507C8F025FDAD
:1004A00003C02064318320834F990BC0609909C039
:1004B000619907C0669905C0679903C020683183B8
:1004C0002083DF91CF911F910F91FF90EF900895BE
:1004D000206231832083E3CF226031832083ACCF3D
:1004E00020813181246031832083A0CF2062318339
:1004F0002083C7CF206231832083BDCF599A299AA8
:100500002A9A08952F982D9A2E9A2C9A2B9808950E
:100510002F9A2C98089581E080930A012F982C9AA5
:100520002B9A08952B9808952F9859982D982E98C6
:100530002C982B98089510920A0188EB9BE09093D9
:1005400009018093080108950C941D03CF93DF9354
:10055000EC012196FC018491882339F00E949403D8
:10056000FE01849121968111F9CFDF91CF910895F9
:10057000EF92FF920F931F93CF93DF93EC01E62E40
:10058000662391F1F12C02C0FE14E0F40E943903BD
:100590008F3F2FEF9207F1F08D30910599F08A305F
:1005A000910581F09C01205231092F35310560F70A
:1005B0008E010F5F1F4F88830E949403F394E8011C
:1005C000FE1420F38F2DDF91CF911F910F91FF909B
:1005D000EF9008950E943603882321F00E947F0641
:1005E00080FDD2CF8FEFEFCF80E0EDCF1F93CF9381
:1005F000DF93EC010E943603182F0E947F068123AF
:1006000080FD04C0DF91CF911F9108950E947D036A
:10061000CE010E94B401EAE1F1E08491882391F3D4
:10062000CBE1D1E00E949403FE01849121968111D7
:10063000F9CFDF91CF911F91089581E88093D70082
:1006400080EA8093D80086E189BD09B400FEFDCF21
:1006500080E98093D8001092E00010920E01109271
:100660000B018CE08093E2007894089580910E0154
:1006700008952FB7F89480910E018823F9F083E054
:100680008093E9008091E80085FD0CC082FF16C0D0
:100690009BE602C082FF12C09093E8008091E800C0
:1006A00085FFF8CF8091F1009091E80095FD03C09F
:1006B0009BE69093E8002FBF90E008952FBF8FEF47
:1006C0009FEF08959FB7F89480910E01882391F0D1
:1006D00083E08093E9008091F200811109C02091AC
:1006E000E80022FF07C025FD05C02BE62093E800A7
:1006F0009FBF089580E09FBF089580910E018823D9
:1007000091F02FB7F89483E08093E9008091E8009E
:1007100085FF07C09BE69093E8008091E80085FD87
:10072000FACF2FBF0895089590910E01992309F4EF
:1007300043C09FB7F89424E02093E90020910C0176
:10074000211132C03091E400375E2091E80025FD90
:100750001CC09FBF9091E400931781F190910E010E
:10076000992351F144E009C09FBF9091E400931791
:1007700029F190910E019923F9F09FB7F8944093D5
:10078000E9002091E80025FFEFCF8093F1008091F0
:10079000E80085FD03C08AE38093E80085E080934C
:1007A0000D019FBF80E008952091E80025FF03C060
:1007B00010920C01C7CF9FBF8FEF089581E0809307
:1007C0000C018FEF089590910E019923C1F02FB77E
:1007D000F89494E09093E9009091E80095FF11C09F
:1007E0008093F1008091E80085FD03C08AE3809347
:1007F000E80085E080930D012FBF80E008958FEF22
:1008000008952FBF8FEF0895CF92DF92FF920F933D
:100810001F93CF93DF936C01CB0120910E01222314
:10082000B9F1CFB7F89424E02093E90020910C01AE
:10083000211137C0009709F402C2D4E000E42AE392
:10084000F22E15E03091E400375E2091E80025FF9C
:100850000DC02EC020910E012223D1F0CFB7F89405
:10086000D093E9002091E80025FD22C0CFBF209160
:10087000E4002313EFCF81E080930C018FEFDF9131
:10088000CF911F910F91FF90DF90CF900895CFBF30
:100890008FEFDF91CF911F910F91FF90DF90CF905D
:1008A00008952091E80025FFF2CF10920C01C2CFED
:1008B0002091F200402F421B242F30E08217930733
:1008C00018F4482F9C013327821B930B50E04134CE
:1008D000510510F0D601A1C1445B5F4FFA010C94A1
:1008E0008509F60120812093F10096012F5F3F4F8B
:1008F0006901F60120812093F10096012F5F3F4F9F
:100900006901D6011196F60120812093F1006D0155
:10091000FFEFCF1ADF0A2C912093F100D601119638
:10092000F60120812093F1006D01FFEFCF1ADF0A5D
:100930002C912093F100D6011196F601208120938D
:10094000F1006D01FFEFCF1ADF0A2C912093F10027
:10095000D6011196F60120812093F1006D01FFEF81
:10096000CF1ADF0A2C912093F100D6011196F601DF
:1009700020812093F1006D01FFEFCF1ADF0A2C9147
:100980002093F100D6011196F60120812093F10009
:100990006D01FFEFCF1ADF0A2C912093F100D601F1
:1009A0001196F60120812093F1006D01FFEFCF1A1F
:1009B000DF0A2C912093F100D6011196F6012081D7
:1009C0002093F1006D01FFEFCF1ADF0A2C912093E5
:1009D000F100D6011196F60120812093F1006D01FE
:1009E000FFEFCF1ADF0A2C912093F100D601119668
:1009F000F60120812093F1006D01FFEFCF1ADF0A8D
:100A00002C912093F100D6011196F60120812093BC
:100A1000F1006D01FFEFCF1ADF0A2C912093F10056
:100A2000D6011196F60120812093F1006D01FFEFB0
:100A3000CF1ADF0A2C912093F100D6011196F6010E
:100A400020812093F1006D01FFEFCF1ADF0A2C9176
:100A50002093F100D6011196F60120812093F10038
:100A60006D01FFEFCF1ADF0A2C912093F100D60120
:100A70001196F60120812093F1006D01FFEFCF1A4E
:100A8000DF0A2C912093F100D6011196F601208106
:100A90002093F1006D01FFEFCF1ADF0A2C91209314
:100AA000F100D6011196F60120812093F1006D012D
:100AB000FFEFCF1ADF0A2C912093F100D601119697
:100AC000F60120812093F1006D01FFEFCF1ADF0ABC
:100AD0002C912093F100D6011196F60120812093EC
:100AE000F1006D01FFEFCF1ADF0A2C912093F10086
:100AF000D6011196F60120812093F1006D01FFEFE0
:100B0000CF1ADF0A2C912093F100D6011196F6013D
:100B100020812093F1006D01FFEFCF1ADF0A2C91A5
:100B20002093F100D6011196F60120812093F10067
:100B30006D01FFEFCF1ADF0A2C912093F100D6014F
:100B40001196F60120812093F1006D01FFEFCF1A7D
:100B5000DF0A2C912093F100D6011196F601208135
:100B60002093F1006D01FFEFCF1ADF0A2C91209343
:100B7000F100D6011196F60120812093F1006D015C
:100B8000FFEFCF1ADF0A2C912093F100D6011196C6
:100B9000F60120812093F1006D01FFEFCF1ADF0AEB
:100BA0002C912093F100D6011196F601208120931B
:100BB000F1006D01FFEFCF1ADF0A2C912093F100B5
:100BC000D6011196F60120812093F1006D01FFEF0F
:100BD000CF1ADF0A2C912093F100D6011196F6016D
:100BE00020812093F1006D01FFEFCF1ADF0A2C91D5
:100BF0002093F100D6011196F60120812093F10097
:100C00006D01FFEFCF1ADF0A2C912093F100D6017E
:100C10001196F60120812093F1006D01FFEFCF1AAC
:100C2000DF0A2C912093F1002091E80025FFF0923B
:100C3000E80010930D01CFBF009709F003CE80E0CC
:100C400028CED6018FCFD60180CFD60171CFD60165
:100C5000E0CED601EBCED6015ACED60165CED60176
:100C60008ACED60195CED6016CCED60177CED601EE
:100C700011CFD60102CFD601F3CED601E4CED601F4
:100C80004ACFD6013BCFD6012CCFD6011DCFD601FE
:100C90000ECFD6019BCFD6018CCFD6017DCFD6010A
:100CA0006ECFD601ADCFD6019ECFD60198CED6015C
:100CB000A3CED6017ACED60185CE8FB7F894909187
:100CC0000D01992341F094E09093E9009AE3909309
:100CD000E80010920D018FBF08956091000170919E
:100CE0000101809102019091030108958091040116
:100CF00008958091050108958091060108958091DD
:100D00000B0108952FB7F89490910E01992311F1DA
:100D100092E09093E9009091E80095FF1BC091EA62
:100D20009093F10090E29093F1001092F1001092F4
:100D3000F1001092F1001092F10091E09093F10017
:100D40001092F1008093F1008AE38093E8002FBFB6
:100D500080E008952FBF8FEF08951F920F920FB676
:100D60000F9211248F939F938091E1001092E100E4
:100D700083FF11C01092E90091E09093EB00109274
:100D8000EC0092E19093ED0098E09093F0001092C7
:100D90000E0110920B0182FF13C080910E01882377
:100DA00079F080910D01882359F0815080930D01D5
:100DB000811106C084E08093E9008AE38093E80013
:100DC0009F918F910F900FBE0F901F9018951F92BB
:100DD0000F920FB60F9211240BB60F922F933F93E1
:100DE0004F935F936F937F938F939F93AF93BF9333
:100DF000EF93FF931092E9008091E80083FF2BC0EE
:100E00006091F1004091F1008091F1002091F1009A
:100E100090E0922B2091F1005091F10030E0352BC1
:100E2000B091F100A091F10052EF5093E8004630EC
:100E300009F44EC0453009F429C1493009F4BCC059
:100E4000483009F42EC1413209F461C1403209F041
:100E5000BBC16132B1F081E28093EB00FF91EF9171
:100E6000BF91AF919F918F917F916F915F914F91C2
:100E70003F912F910F900BBE0F900FBE0F901F90C0
:100E800018958091E80082FFFCCF8091F10080935B
:100E900000018091F100809301018091F100809325
:100EA00002018091F100809303018091F100809311
:100EB00004018091F100809305018091F1008093FD
:100EC00006018BEF8093E8008EEF8093E800C6CF99
:100ED000E5E9F1E0459154918417950709F442C181
:100EE0004CE951E0FA01659174918617970709F46E
:100EF00044C1495F5F4FFA01659174918617970766
:100F000009F444C1495F5F4FFA01659174918617F6
:100F1000970709F444C1495F5F4FFA0165917491E5
:100F20008617970709F444C1495F5F4FFA0165913D
:100F300074918617970709F08ECFFA013296859142
:100F400094912817390709F086CFFA013496259134
:100F50003491FA01369644918B2F90E09A2B8F3F73
:100F6000910519F010F08FEF90E0841708F4482FE6
:100F70006EEF8091E800982F9570D9F382FD6ECFC7
:100F8000542F413108F4E9C050E1F901852F9491C3
:100F90009093F100815031968111F9CF8FEF850F39
:100FA00090E00196280F391F451B6093E80041111E
:100FB000E0CF5031F1F252CF611175C080930E0134
:100FC00010920B0110920D018EEF8093E80081E0EA
:100FD0008093E900E4E5F2E0E491E093EB00EE2396
:100FE00009F4EFC0E5E5F2E0E491E093EC00E6E51A
:100FF000F2E0E491E093ED0027E532E082E08093B7
:10100000E900C9010196F90144914093EB004423A2
:1010100059F0FC0184918093EC00C9010396F90119
:10102000329624912093ED0023E02093E9009C0167
:101030002F5F3F4FFC0144914093EB00442361F04C
:10104000F90124912093EC009C012D5F3F4FFC019E
:10105000329684918093ED0084E08093E900C90189
:101060000196F90144914093EB00442349F0FC01BF
:1010700084918093EC00F901329624912093ED0045
:101080008EE18093EA001092EA00E8CE2EEF2093E2
:10109000E8002091E80020FFFCCF80688093E30007
:1010A000DDCE603841F1542F5D7F513009F0D3CE51
:1010B000623009F0D0CE892B09F0CDCE2F778FEF9B
:1010C000820F843008F0C7CE8EEF8093E800209323
:1010D000E900433009F4BFCE89E18093EB0081E061
:1010E00090E0022E01C0880F0A94EAF78093EA008C
:1010F0001092EA00B3CE8091E80080FFFCCF80918F
:101100000E018093F1008EEF8093E800A7CE613A44
:1011100051F68091E80080FFFCCF80910001809320
:10112000F100809101018093F10080910201809390
:10113000F100809103018093F1008091040180937C
:10114000F100809105018093F10080910601809368
:10115000F1008EEF8093E80081CE411116CF6093AD
:10116000E8007CCEE7E9F1E045915491241735077A
:1011700009F0B6CE45E951E0E8CEFA013296659124
:1011800074912617370709F0B4CEDFCEFA013296F4
:10119000659174912617370709F0B4CED6CEFA01BF
:1011A0003296659174912617370709F0B4CECDCEEB
:1011B000FA013296659174912617370709F0B4CE7B
:1011C000C4CE25E532E01ACF423269F4613209F02B
:1011D00042CE80930B018091E80080FFFCCF8EEF20
:1011E0008093E8003BCE41115ECF8091E80080FF04
:1011F000FCCF623831F080E08093F1001092F10072
:10120000EECF2093E9008091EB0085FB882780F9E1
:101210001092E900F1CFCF93DF9300D01F92CDB7AA
:10122000DEB71B821A8219820E947D0184E0D82ECB
:1012300011E002E093E0E92E25E0F22E1A821982F5
:10124000CE0101960E94B401BE016D5F7F4FCE01B9
:1012500001960E94F6028B818230D1F058F08430E2
:1012600009F44AC008F440C0853009F04DC00E941E
:101270009402FFCF882379F1813061F50E948202C8
:1012800029813A8121FD0B8323FF17C0EB82D6CF42
:101290000E948B0289819A819C012A703327232B1B
:1012A00009F01B8385FF0EC0DB820E949B028981AF
:1012B0009A81079719F6FB82C1CFC901079709F0F8
:1012C000BDCFF9CF2B812230C9F30E949B028981C7
:1012D0009A81EFCFFFCF0E947E0229813A8120FFC1
:1012E000ECCF1B83C901EACF0E948B0229813A818E
:1012F00024FFE3CF1B83A2CF0E94920229813A816F
:1013000026FFDBCF0B839ACFE5CFEE0FFF1F0590B3
:0A131000F491E02D0994F894FFCF4A
:08131A0000E1000000000800E2
:00000001FF
