:100000000C942F010C944E010C944E010C944E0153
:100010000C944E010C944E010C944E010C944E0124
:100020000C944E010C944E010C9490070C94CA074A
:100030000C944E010C944E010C944E010C944E0104
:100040000C944E010C9451010C944E010C944E01F1
:100050000C944E010C944E010C944E010C944E01E4
:100060000C944E010C944E010C944E010C944E01D4
:100070000C944E010C944E010C944E010C944E01C4
:100080000C944E010C944E010C944E010C944E01B4
:100090000C944E010C944E01F7064D05EA06340708
:1000A000DD063607D0062C07C3062E07B606300736
:1000B000A90632079C0604078F0606078206080772
:1000C00075062207680624075B0626074E062807E2
:1000D00041062A0734061A0727061C071A061E07B8
:1000E0000D06200700060C07F3050A07E6053A0788
:1000F000D9053807CC053E07BF053C07B2051407F4
:10010000A5051207980518078B0516077E05100729
:1001100071050E0764055C0554050D0A537570657D
:10012000727669736F727920436F6D707574657242
:100130002053657269616C5465726D696E616C20E3
:10014000496E746572666163650D0A0D0A737461A8
:100150007465203A207072696E74206375727265DE
:100160006E742076656869636C652073746174656C
:100170000D0A6576656E743D48565F5550203A20ED
:10018000736574206576656E7420746F2048565FC1
:1001900055500D0A0000010000420212000200004A
:1001A000FF014300030000FB010401030904E50112
:1001B0001402030904CD011603030904BF010C0C4A
:1001C00003310032003300340035000000160355BF
:1001D0000053004200200053006500720069006176
:1001E000006C000000140359006F007500720020BD
:1001F000004E0061006D0065000000040309040961
:10020000024300020100C0320904000001020201A1
:100210000005240010010524010101042402060543
:1002200024060001070582031000400904010002B2
:100230000A00000007050302400000070584024091
:1002400000001201000202000010C0167A04000132
:10025000010203010001C11201803601813611241F
:100260001FBECFEFD0E2DEBFCDBF11E0A0E0B1E016
:10027000E4E2F5E100E00BBF02C007900D92A83068
:10028000B107D9F721E0A8E0B1E001C01D92AF307D
:10029000B207E1F70E94EB090C94900A0C9400005D
:1002A000FFCF1F920F920FB60F9211248F939F933F
:1002B00080910A01882331F0809108019091090111
:1002C000892B51F4589810920A019F918F910F90A9
:1002D0000FBE0F901F901895589A80910801909129
:1002E0000901019790930901809308019F918F91D3
:1002F0000F900FBE0F901F901895E1E6F0E080E898
:100300008083108211B89EEF94B990E397B99FE073
:100310009AB91DB810BA9FEF91BB97E890937A00F5
:1003200080937B00E1E8F0E080818A6080838FEC3D
:1003300097E09093890080938800EFE6F0E0808159
:100340008260808308958EE480937C008FE39FE138
:100350000197F1F700C0000080917A0080648093DB
:100360007A0080917A0086FDFCCF20917800309150
:10037000790040E050E064EB7BE281E190E00E9494
:100380004E0ACA01B9010895606460937C0020910F
:100390007A00206420937A0020917A0026FDFCCF19
:1003A000A0917800B0917900FC01208131814281D7
:1003B00053810E94760A2FEF33E040E050E00E9424
:1003C0004E0ACA01B90108952F923F924F925F924F
:1003D0006F927F928F929F92AF92BF92CF92DF9255
:1003E000EF92FF920F931F93CF93DF9300D000D033
:1003F000CDB7DEB78C018EE480937C008FE39FE164
:100400000197F1F700C0000080917A00806480932A
:100410007A0080917A0086FDFCCF2091780030919F
:10042000790040E050E064EB7BE281E190E00E94E3
:100430004E0A69017A0182E480937C0080917A00FF
:10044000806480937A0080917A0086FDFCCFA09131
:100450007800B0917900A70196010E94760A2FEFEB
:1004600033E040E050E00E944E0A29013A0186E460
:1004700080937C0080917A00806480937A008091E0
:100480007A0086FDFCCFA0917800B0917900A70199
:1004900096010E94760A2FEF33E040E050E00E9480
:1004A0004E0A49015A0187E480937C0080917A00CA
:1004B000806480937A0080917A0086FDFCCFA091C1
:1004C0007800B0917900A70196010E94760A2FEF7B
:1004D00033E040E050E00E944E0A29833A834B8388
:1004E0005C8384E480937C0080917A0080648093B4
:1004F0007A0080917A0086FDFCCFA0917800B091BF
:100500007900A70196010E94760A2FEF33E040E0C0
:1005100050E00E944E0A85E480937C0080917A002E
:10052000806480937A0080917A0086FDFCCFA09150
:100530007800B0917900BA01A9014F5F5F4F6F4F0A
:100540007F4F9A01220F331F220F331F220F331FB9
:10055000F801019997C02080318002998DC0F7E998
:100560004F1651046104710408F086C04C9B05C00D
:10057000689423F8F801318220824C9905C0689470
:1005800024F8F80131822082C4018C599F4F49819F
:100590005A81841B950B893C910528F0689425F8B5
:1005A000F80131822082F5E64F165104610471048E
:1005B00038F04BEF84169104A104B10408F069C02F
:1005C000A901662757FD6095762F84169506A60625
:1005D000B70608F44BC0A70196010E94760A2FEFD8
:1005E00033E040E050E00E944E0A2F5F3F4F4F4FF4
:1005F0005F4F220F331F220F331F220F331FC901FA
:10060000AA2797FDA095BA2F88159905AA05BB05BD
:1006100068F125FC05C0689426F8F8013182208233
:100620004F990DC060990BC0619909C0669907C0C8
:10063000679905C0689427F8F801318220820F90ED
:100640000F900F900F90DF91CF911F910F91FF901E
:10065000EF90DF90CF90BF90AF909F908F907F9062
:100660006F905F904F903F902F900895689425F879
:10067000F80131822082CDCF689421F8F8013182CF
:10068000208274CF20803180689422F831822082C9
:1006900064CF689425F8F8013182208291CF599A6D
:1006A000299A2A9A88B1806788B908952F982D9A37
:1006B0002E9A2C9A2B9844984598469A08952F9AEA
:1006C0002C984498459A469A089581E080930A01AF
:1006D0002F982C9A2B9A4498459A469808952B98CF
:1006E000449A459A469808952F9859982D982E988F
:1006F0002C982B98449A45984698089510920A0190
:1007000088EB9BE0909309018093080108950C9475
:100710000004CF93DF93EC012196FC0184918823A0
:1007200039F00E947704FE01849121968111F9CF5E
:10073000DF91CF910895EF92FF920F931F93CF9384
:10074000DF93EC01E62E662391F1F12C02C0FE143A
:10075000E0F40E941C048F3F2FEF9207F1F08D30E0
:10076000910599F08A30910581F09C012052310960
:100770002F35310560F78E010F5F1F4F88830E9470
:100780007704F394E801FE1420F38F2DDF91CF91CD
:100790001F910F91FF90EF9008950E9419048823F4
:1007A00021F00E94620780FDD2CF8FEFEFCF80E073
:1007B000EDCF1F93CF93DF93EC010E941904182F04
:1007C0000E946207812380FD04C0DF91CF911F91B9
:1007D00008950E946004CE010E94E401EAE1F1E084
:1007E0008491882391F3CBE1D1E00E947704FE014C
:1007F000849121968111F9CFDF91CF911F910895B6
:1008000081E88093D70080EA8093D80086E189BD93
:1008100009B400FEFDCF80E98093D8001092E0007B
:1008200010920E0110920B018CE08093E2007894FC
:10083000089580910E0108952FB7F89480910E01CC
:100840008823F9F083E08093E9008091E80085FD3A
:100850000CC082FF16C09BE602C082FF12C09093BC
:10086000E8008091E80085FFF8CF8091F100909139
:10087000E80095FD03C09BE69093E8002FBF90E051
:1008800008952FBF8FEF9FEF08959FB7F894809141
:100890000E01882391F083E08093E9008091F200BB
:1008A000811109C02091E80022FF07C025FD05C085
:1008B0002BE62093E8009FBF089580E09FBF089536
:1008C00080910E01882391F02FB7F89483E08093F4
:1008D000E9008091E80085FF07C09BE69093E8005F
:1008E0008091E80085FDFACF2FBF0895089590917B
:1008F0000E01992309F443C09FB7F89424E0209394
:10090000E90020910C01211132C03091E400375EE2
:100910002091E80025FD1CC09FBF9091E400931733
:1009200081F190910E01992351F144E009C09FBFDC
:100930009091E400931729F190910E019923F9F019
:100940009FB7F8944093E9002091E80025FFEFCF8E
:100950008093F1008091E80085FD03C08AE38093D5
:10096000E80085E080930D019FBF80E0089520910D
:10097000E80025FF03C010920C01C7CF9FBF8FEF87
:10098000089581E080930C018FEF089590910E01FE
:100990009923C1F02FB7F89494E09093E9009091D7
:1009A000E80095FF11C08093F1008091E80085FD7B
:1009B00003C08AE38093E80085E080930D012FBF98
:1009C00080E008958FEF08952FBF8FEF0895CF92A5
:1009D000DF92FF920F931F93CF93DF936C01CB01B4
:1009E00020910E012223B9F1CFB7F89424E020938F
:1009F000E90020910C01211137C0009709F402C2CF
:100A0000D4E000E42AE3F22E15E03091E400375EF2
:100A10002091E80025FF0DC02EC020910E01222359
:100A2000D1F0CFB7F894D093E9002091E80025FDEC
:100A300022C0CFBF2091E4002313EFCF81E0809349
:100A40000C018FEFDF91CF911F910F91FF90DF90FD
:100A5000CF900895CFBF8FEFDF91CF911F910F916E
:100A6000FF90DF90CF9008952091E80025FFF2CF0E
:100A700010920C01C2CF2091F200402F421B242F74
:100A800030E08217930718F4482F9C013327821B0C
:100A9000930B50E04134510510F0D601A1C1445BE5
:100AA0005F4FFA010C94700AF60120812093F10047
:100AB00096012F5F3F4F6901F60120812093F100DD
:100AC00096012F5F3F4F6901D6011196F6012081F3
:100AD0002093F1006D01FFEFCF1ADF0A2C912093D4
:100AE000F100D6011196F60120812093F1006D01ED
:100AF000FFEFCF1ADF0A2C912093F100D601119657
:100B0000F60120812093F1006D01FFEFCF1ADF0A7B
:100B10002C912093F100D6011196F60120812093AB
:100B2000F1006D01FFEFCF1ADF0A2C912093F10045
:100B3000D6011196F60120812093F1006D01FFEF9F
:100B4000CF1ADF0A2C912093F100D6011196F601FD
:100B500020812093F1006D01FFEFCF1ADF0A2C9165
:100B60002093F100D6011196F60120812093F10027
:100B70006D01FFEFCF1ADF0A2C912093F100D6010F
:100B80001196F60120812093F1006D01FFEFCF1A3D
:100B9000DF0A2C912093F100D6011196F6012081F5
:100BA0002093F1006D01FFEFCF1ADF0A2C91209303
:100BB000F100D6011196F60120812093F1006D011C
:100BC000FFEFCF1ADF0A2C912093F100D601119686
:100BD000F60120812093F1006D01FFEFCF1ADF0AAB
:100BE0002C912093F100D6011196F60120812093DB
:100BF000F1006D01FFEFCF1ADF0A2C912093F10075
:100C0000D6011196F60120812093F1006D01FFEFCE
:100C1000CF1ADF0A2C912093F100D6011196F6012C
:100C200020812093F1006D01FFEFCF1ADF0A2C9194
:100C30002093F100D6011196F60120812093F10056
:100C40006D01FFEFCF1ADF0A2C912093F100D6013E
:100C50001196F60120812093F1006D01FFEFCF1A6C
:100C6000DF0A2C912093F100D6011196F601208124
:100C70002093F1006D01FFEFCF1ADF0A2C91209332
:100C8000F100D6011196F60120812093F1006D014B
:100C9000FFEFCF1ADF0A2C912093F100D6011196B5
:100CA000F60120812093F1006D01FFEFCF1ADF0ADA
:100CB0002C912093F100D6011196F601208120930A
:100CC000F1006D01FFEFCF1ADF0A2C912093F100A4
:100CD000D6011196F60120812093F1006D01FFEFFE
:100CE000CF1ADF0A2C912093F100D6011196F6015C
:100CF00020812093F1006D01FFEFCF1ADF0A2C91C4
:100D00002093F100D6011196F60120812093F10085
:100D10006D01FFEFCF1ADF0A2C912093F100D6016D
:100D20001196F60120812093F1006D01FFEFCF1A9B
:100D3000DF0A2C912093F100D6011196F601208153
:100D40002093F1006D01FFEFCF1ADF0A2C91209361
:100D5000F100D6011196F60120812093F1006D017A
:100D6000FFEFCF1ADF0A2C912093F100D6011196E4
:100D7000F60120812093F1006D01FFEFCF1ADF0A09
:100D80002C912093F100D6011196F6012081209339
:100D9000F1006D01FFEFCF1ADF0A2C912093F100D3
:100DA000D6011196F60120812093F1006D01FFEF2D
:100DB000CF1ADF0A2C912093F100D6011196F6018B
:100DC00020812093F1006D01FFEFCF1ADF0A2C91F3
:100DD0002093F100D6011196F60120812093F100B5
:100DE0006D01FFEFCF1ADF0A2C912093F1002091C3
:100DF000E80025FFF092E80010930D01CFBF0097A7
:100E000009F003CE80E028CED6018FCFD60180CF67
:100E1000D60171CFD601E0CED601EBCED6015ACEA7
:100E2000D60165CED6018ACED60195CED6016CCE3E
:100E3000D60177CED60111CFD60102CFD601F3CE9F
:100E4000D601E4CED6014ACFD6013BCFD6012CCF76
:100E5000D6011DCFD6010ECFD6019BCFD6018CCFA8
:100E6000D6017DCFD6016ECFD601ADCFD6019ECFB4
:100E7000D60198CED601A3CED6017ACED60185CEA4
:100E80008FB7F89490910D01992341F094E09093DD
:100E9000E9009AE39093E80010920D018FBF089546
:100EA0006091000170910101809102019091030114
:100EB000089580910401089580910501089580911D
:100EC0000601089580910B0108952FB7F894909131
:100ED0000E01992311F192E09093E9009091E800BE
:100EE00095FF1BC091EA9093F10090E29093F1007E
:100EF0001092F1001092F1001092F1001092F100A6
:100F000091E09093F1001092F1008093F1008AE358
:100F10008093E8002FBF80E008952FBF8FEF0895E2
:100F20001F920F920FB60F9211248F939F9380916F
:100F3000E1001092E10083FF11C01092E90091E0FE
:100F40009093EB001092EC0092E19093ED0098E00A
:100F50009093F00010920E0110920B0182FF13C0CB
:100F600080910E01882379F080910D01882359F03A
:100F7000815080930D01811106C084E08093E900C7
:100F80008AE38093E8009F918F910F900FBE0F909E
:100F90001F9018951F920F920FB60F9211240BB647
:100FA0000F922F933F934F935F936F937F938F9302
:100FB0009F93AF93BF93EF93FF931092E9008091BB
:100FC000E80083FF2BC06091F1004091F100809117
:100FD000F1002091F10090E0922B2091F1005091CE
:100FE000F10030E0352BB091F100A091F10052EF0B
:100FF0005093E800463009F44EC0453009F426C14C
:10100000493009F4BCC0483009F42BC1413209F41D
:101010005EC1403209F0B8C16132B1F081E2809323
:10102000EB00FF91EF91BF91AF919F918F917F91D5
:101030006F915F914F913F912F910F900BBE0F9049
:101040000FBE0F901F9018958091E80082FFFCCF93
:101050008091F100809300018091F1008093010163
:101060008091F100809302018091F100809303014F
:101070008091F100809304018091F100809305013B
:101080008091F100809306018BEF8093E8008EEF52
:101090008093E800C6CFE5E9F1E0459154918417CB
:1010A000950709F43FC14CE951E0FA01659174914B
:1010B0008617970709F441C1495F5F4FFA016591AF
:1010C00074918617970709F441C1495F5F4FFA0190
:1010D000659174918617970709F441C1495F5F4F85
:1010E000FA01659174918617970709F441C1495F28
:1010F0005F4FFA01659174918617970709F08ECFBB
:10110000FA013296859194912817390709F086CF14
:10111000FA01349625913491FA01369644918B2F39
:1011200090E09A2B8F3F910519F010F08FEF90E02F
:10113000841708F4482F6EEF8091E800982F95707F
:10114000D9F382FD6ECF542F413108F4E6C050E14F
:10115000F901852F94919093F1008150319681117E
:10116000F9CF8FEF850F90E00196280F391F451BAF
:101170006093E8004111E0CF5031F1F252CF61119C
:1011800072C080930E0110920B0110920D018EEF30
:101190008093E80081E08093E900E4E5F2E0E491E7
:1011A000E093EB00EE2309F4ECC0E5E5F2E0E49116
:1011B000E093EC00E6E5F2E0E491E093ED0027E552
:1011C00032E082E08093E900C9010196F90144917F
:1011D0004093EB00442351F0FC0184918093EC0098
:1011E000C9010396319624912093ED0023E02093CA
:1011F000E9009C012F5F3F4FFC0144914093EB00BD
:10120000442359F0F90124912093EC009C012D5FB7
:101210003F4F319684918093ED0084E08093E90004
:10122000C9010196F90144914093EB00442341F038
:10123000FC0184918093EC00319624912093ED0081
:101240008EE18093EA001092EA00EBCE2EEF20931D
:10125000E8002091E80020FFFCCF80688093E30045
:10126000E0CE603841F1542F5D7F513009F0D6CE89
:10127000623009F0D3CE892B09F0D0CE2F778FEFD3
:10128000820F843008F0CACE8EEF8093E80020935E
:10129000E900433009F4C2CE89E18093EB0081E09C
:1012A00090E0022E01C0880F0A94EAF78093EA00CA
:1012B0001092EA00B6CE8091E80080FFFCCF8091CA
:1012C0000E018093F1008EEF8093E800AACE613A80
:1012D00051F68091E80080FFFCCF8091000180935F
:1012E000F100809101018093F100809102018093CF
:1012F000F100809103018093F100809104018093BB
:10130000F100809105018093F100809106018093A6
:10131000F1008EEF8093E80084CE411119CF6093E5
:10132000E8007FCEE7E9F1E04591549124173507B5
:1013300009F0B9CE45E951E0EBCEFA01329665915C
:1013400074912617370709F0B7CEE2CEFA0132962C
:10135000659174912617370709F0B7CED9CEFA01F7
:101360003296659174912617370709F0B7CED0CE23
:10137000FA013296659174912617370709F0B7CEB6
:10138000C7CE25E532E01DCF423269F4613209F063
:1013900045CE80930B018091E80080FFFCCF8EEF5B
:1013A0008093E8003ECE41115ECF8091E80080FF3F
:1013B000FCCF623831F080E08093F1001092F100B0
:1013C000EECF2093E9008091EB0085FB882780F920
:1013D0001092E900F1CFCF93DF9300D0CDB7DEB705
:1013E0001A8219820E947D0110E01A821982CE01B0
:1013F00001960E94E401133011F1143040F51130D0
:1014000009F442C01230C1F50E94650389819A81B6
:101410009C012A703327232B59F585FF05C014E062
:101420000E947E0389819A810797F9F615E01A8256
:101430001982CE0101960E94E4011330F1F60E9458
:10144000650329813A8124FF11C011E0CECF143009
:1014500029F0153089F40E947403FFCF0E946F03B6
:1014600029813A8126FF02C012E0BFCFC901DCCF3B
:1014700085FDD5CF11E0D4CF0E944F0329813A8159
:10148000122F1170C901D0CF0E94560329813A81D1
:1014900021FD12E023FFEACF13E0A7CFA1E21A2E2D
:1014A000AA1BBB1BFD010DC0AA1FBB1FEE1FFF1F08
:1014B000A217B307E407F50720F0A21BB30BE40B58
:1014C000F50B661F771F881F991F1A9469F760959F
:1014D0007095809590959B01AC01BD01CF01089559
:1014E000EE0FFF1F0590F491E02D09940E94810AF0
:1014F000A59F900DB49F900DA49F800D911D112468
:101500000895A29FB001B39FC001A39F700D811DDC
:101510001124911DB29F700D811D1124911D0895FC
:04152000F894FFCF6D
:0815240000E1000000000800D6
:00000001FF
