:100000000C9436010C9455010C9455010C94550137
:100010000C9455010C9455010C9455010C94550108
:100020000C9455010C9455010C943C080C947608E2
:100030000C9455010C9455010C9455010C945501E8
:100040000C9455010C945A010C9455010C945501D3
:100050000C9455010C9455010C9455010C945501C8
:100060000C9455010C9455010C9455010C945501B8
:100070000C9455010C9455010C9455010C945501A8
:100080000C9455010C9455010C9455010C94550198
:100090000C9455010C945501F30AD50ADF0AFD0AA8
:1000A000C60AB80AFA0AA307F9059607E0078907FE
:1000B000E2077C07D8076F07DA076207DC075507F6
:1000C000DE074807B0073B07B2072E07B407210732
:1000D000CE071407D0070707D207FA06D407ED06A4
:1000E000D607E006C607D306C807C606CA07B9067C
:1000F000CC07AC06B8079F06B6079206E60785064A
:10010000E4077806EA076B06E8075E06C0075106B3
:10011000BE074406C4073706C2072A06BC071D06E9
:10012000BA071006080600060D0A53757065727648
:1001300069736F727920436F6D70757465722053A7
:10014000657269616C5465726D696E616C20496E8F
:10015000746572666163650D0A0D0A737461746576
:10016000203A207072696E742063757272656E74C5
:100170002076656869636C652073746174650D0A27
:100180006576656E743D48565F5550203A2073651C
:1001900074206576656E7420746F2048565F5550E4
:1001A0000D0A0000010000500212000200000D02C2
:1001B000430003000009020401030904F3011402CF
:1001C000030904DB011603030904CD010C0C033100
:1001D0000032003300340035000000160355005390
:1001E0000042002000530065007200690061006C4D
:1001F000000000140359006F007500720020004ECB
:100200000061006D00650000000403090409024359
:1002100000020100C03209040000010202010005D1
:10022000240010010524010101042402060524060E
:1002300000010705820310004009040100020A00C2
:10024000000007050302400000070584024000008B
:100250001201000202000010C0167A04000101021F
:1002600003010001C11201803601813611241FBE35
:10027000CFEFD0E2DEBFCDBF11E0A0E0B1E0E4E01F
:10028000F7E100E00BBF02C007900D92AE30B1075E
:10029000D9F721E0AEE0B1E001C01D92A631B2076E
:1002A000E1F70E94970A0C94800B0C9400000E94C6
:1002B000FC03FDCF1F920F920FB60F9211240BB6C5
:1002C0000F922F933F934F935F936F937F938F93EF
:1002D0009F93AF93BF93EF93FF9380911101882376
:1002E00051F18091040190910501892B09F48DC091
:1002F00040910401509105019A0136952795ABE78D
:10030000B4E10E94660B9695879562E3689F900121
:10031000699F300D11244217530721F48BB191E0EE
:1003200089278BB9809104019091050101979093E1
:1003300005018093040180911001882389F0809148
:10034000020190910301892B09F458C0589A8091B9
:1003500002019091030101979093030180930201A0
:1003600080910E01882399F1809100019091010103
:10037000892B09F43FC0E0910001F09101019F0138
:10038000AFEAB7E40E94660BAF01481B590B5695C4
:100390004795480F591F529542954F7045275F70FA
:1003A000452729E1249FC001259F900D1124E817BE
:1003B000F90721F48BB191E089278BB98091000175
:1003C0009091010101979093010180930001FF91A9
:1003D000EF91BF91AF919F918F917F916F915F91BD
:1003E0004F913F912F910F900BBE0F900FBE0F902A
:1003F0001F901895589810920E01E9CF58981092B6
:10040000100181E080930F01ABCF58981092110139
:1004100092CFE1E6F0E080E88083108211B89FEF90
:1004200094B990E797B99FE09AB91DB810BA2EE039
:1004300022B998B98BB993EC9EB997E890937A005A
:1004400080937B00E1E8F0E080818A6080838FEC1C
:1004500097E09093890080938800EFE6F0E0808138
:1004600082608083789408958EE580937C008FE38A
:100470009FE10197F1F700C0000080917A0080644D
:1004800080937A0080917A0086FDFCCF20917800DD
:100490003091790040E050E063EC7FEE80E190E045
:1004A0000E941F0BCA01B9010895606460937C002B
:1004B00020917A00206420937A0020917A0026FD12
:1004C000FCCFA0917800B0917900FC0120813181AE
:1004D000428153810E94750B2FEF33E040E050E0E2
:1004E0000E941F0BCA01B90108954F925F926F924B
:1004F0007F928F929F92AF92BF92CF92DF92EF92B4
:10050000FF92CF93DF93EC018EE580937C008FE325
:100510009FE10197F1F700C0000080917A008064AC
:1005200080937A0080917A0086FDFCCF209178003C
:100530003091790040E050E063EC7FEE80E190E0A4
:100540000E941F0B69017A0183E480937C008091F3
:100550007A00806480937A0080917A0086FDFCCFD7
:10056000A0917800B0917900A70196010E94750BC7
:100570002FEF33E040E050E00E941F0B29013A01C9
:1005800085E480937C0080917A00806480937A0077
:1005900080917A0086FDFCCFA0917800B09179001F
:1005A000A70196010E94750B2FEF33E040E050E069
:1005B0000E941F0B49015A0186E480937C008091C0
:1005C0007A00806480937A0080917A0086FDFCCF67
:1005D000A0917800B0917900A70196010E94750B57
:1005E0002FEF33E040E050E00E941F0B69017A01D9
:1005F000A8E0B8E00E94750B28EE33E040E050E040
:100600000E94410B2D5C3109C401821B930B97FDA5
:10061000BDC0019905C028813981216039832883B3
:10062000029902C04D99A2C0039905C02881398161
:1006300024603983288320910F01222329F0288107
:1006400039812061398328834C9B05C028813981F9
:100650002860398328834C9905C02881398120621C
:1006600039832883813921E092072CF02881398150
:100670002064398328832CEB821621E09206A104A2
:10068000B10408F456C02DE0C21621E0D206E10400
:10069000F10408F44EC020E4421622E05206610440
:1006A000710440F02FEF821626E09206A104B104F7
:1006B00008F056C081399140CCF48CEB881A81E067
:1006C000980AA108B10892ED891691E09906A10453
:1006D000B10460F42DE0C21621E0D206E104F10479
:1006E00028F088819981806899838883309B02C033
:1006F00031992DC081E029B1609B02C061991FC072
:1007000091E0811102C027FD45C0888199819160E7
:1007100099838883DF91CF91FF90EF90DF90CF9006
:10072000BF90AF909F908F907F906F905F904F9011
:10073000089528813981206439832883ACCF669B52
:10074000DFCF9CB19095991F9927991FDACF329BE3
:10075000D1CF86B183FB882780F991E08927CBCF61
:1007600028813981206439832883A4CF4E9B5CCFB4
:1007700020E4421622E052066104710408F454CFCA
:10078000288139812260398328834ECF91958195C4
:1007900091093FCF9111B9CFBDCF599A299A2A9A81
:1007A00088B1806788B908952F982D9A2E9A2C9A2F
:1007B0002B9888B18F78806488B9089581E0809300
:1007C00010012C982F9A28980895289A88B18F782C
:1007D000806688B9089581E08093110188B18F788F
:1007E000806288B9089581E080930E012B9888B1CA
:1007F0008F78806388B9089588B18F78806588B9CB
:100800000895109211018CED95E09093050180936D
:10081000040108951092100188EB9BE0909303016E
:100820008093020110920F01089510920E0188EB3F
:100830009BE09093010180930001089528B130E17D
:10084000839FC00111242F78282B28B9089581E0B7
:1008500080930E012F9859982D982E982C982B98AC
:100860000E941E04FFCF0C94AC04CF93DF93EC01E5
:100870002196FC018491882339F00E942305FE0112
:10088000849121968111F9CFDF91CF910895EF9254
:10089000FF920F931F93CF93DF93EC01E62E662315
:1008A00091F1F12C02C0FE14E0F40E94C8048F3FC5
:1008B0002FEF9207F1F08D30910599F08A30910574
:1008C00081F09C01205231092F35310560F78E01EE
:1008D0000F5F1F4F88830E942305F394E801FE14E5
:1008E00020F38F2DDF91CF911F910F91FF90EF900B
:1008F00008950E94C504882321F00E940E0880FDFF
:10090000D2CF8FEFEFCF80E0EDCF1F93CF93DF9368
:10091000EC010E94C504182F0E940E08812380FD5F
:1009200004C0DF91CF911F9108950E940C05CE0164
:100930000E947502E8E2F1E08491882391F3C9E214
:10094000D1E00E942305FE01849121968111F9CF07
:10095000DF91CF911F91089581E88093D70080EABD
:100960008093D80086E189BD09B400FEFDCF80E9FF
:100970008093D8001092E00010921501109212019D
:100980008CE08093E2007894089580911501089599
:100990002FB7F894809115018823F9F083E08093B4
:1009A000E9008091E80085FD0CC082FF16C09BE63F
:1009B00002C082FF12C09093E8008091E80085FF9A
:1009C000F8CF8091F1009091E80095FD03C09BE67F
:1009D0009093E8002FBF90E008952FBF8FEF9FEF17
:1009E00008959FB7F89480911501882391F083E0D2
:1009F0008093E9008091F200811109C02091E80004
:100A000022FF07C025FD05C02BE62093E8009FBF0D
:100A1000089580E09FBF089580911501882391F08B
:100A20002FB7F89483E08093E9008091E80085FF78
:100A300007C09BE69093E8008091E80085FDFACF1F
:100A40002FBF0895089590911501992309F443C08B
:100A50009FB7F89424E02093E9002091130121111D
:100A600032C03091E400375E2091E80025FD1CC0C3
:100A70009FBF9091E400931781F190911501992304
:100A800051F144E009C09FBF9091E400931729F110
:100A9000909115019923F9F09FB7F8944093E900DC
:100AA0002091E80025FFEFCF8093F1008091E800CE
:100AB00085FD03C08AE38093E80085E080931401FC
:100AC0009FBF80E008952091E80025FF03C01092A9
:100AD0001301C7CF9FBF8FEF089581E0809313016B
:100AE0008FEF0895909115019923C1F02FB7F894D5
:100AF00094E09093E9009091E80095FF11C08093F5
:100B0000F1008091E80085FD03C08AE38093E8004E
:100B100085E0809314012FBF80E008958FEF089542
:100B20002FBF8FEF0895CF92DF92FF920F931F9305
:100B3000CF93DF936C01CB01209115012223B9F1F2
:100B4000CFB7F89424E02093E900209113012111FC
:100B500037C0009709F402C2D4E000E42AE3F22E81
:100B600015E03091E400375E2091E80025FF0DC0CC
:100B70002EC0209115012223D1F0CFB7F894D09345
:100B8000E9002091E80025FD22C0CFBF2091E400BC
:100B90002313EFCF81E0809313018FEFDF91CF918B
:100BA0001F910F91FF90DF90CF900895CFBF8FEFEF
:100BB000DF91CF911F910F91FF90DF90CF9008951B
:100BC0002091E80025FFF2CF10921301C2CF2091AF
:100BD000F200402F421B242F30E08217930718F4B5
:100BE000482F9C013327821B930B50E04134510561
:100BF00010F0D601A1C14D5A5F4FFA010C94600B61
:100C0000F60120812093F10096012F5F3F4F69018B
:100C1000F60120812093F10096012F5F3F4F69017B
:100C2000D6011196F60120812093F1006D01FFEFAE
:100C3000CF1ADF0A2C912093F100D6011196F6010C
:100C400020812093F1006D01FFEFCF1ADF0A2C9174
:100C50002093F100D6011196F60120812093F10036
:100C60006D01FFEFCF1ADF0A2C912093F100D6011E
:100C70001196F60120812093F1006D01FFEFCF1A4C
:100C8000DF0A2C912093F100D6011196F601208104
:100C90002093F1006D01FFEFCF1ADF0A2C91209312
:100CA000F100D6011196F60120812093F1006D012B
:100CB000FFEFCF1ADF0A2C912093F100D601119695
:100CC000F60120812093F1006D01FFEFCF1ADF0ABA
:100CD0002C912093F100D6011196F60120812093EA
:100CE000F1006D01FFEFCF1ADF0A2C912093F10084
:100CF000D6011196F60120812093F1006D01FFEFDE
:100D0000CF1ADF0A2C912093F100D6011196F6013B
:100D100020812093F1006D01FFEFCF1ADF0A2C91A3
:100D20002093F100D6011196F60120812093F10065
:100D30006D01FFEFCF1ADF0A2C912093F100D6014D
:100D40001196F60120812093F1006D01FFEFCF1A7B
:100D5000DF0A2C912093F100D6011196F601208133
:100D60002093F1006D01FFEFCF1ADF0A2C91209341
:100D7000F100D6011196F60120812093F1006D015A
:100D8000FFEFCF1ADF0A2C912093F100D6011196C4
:100D9000F60120812093F1006D01FFEFCF1ADF0AE9
:100DA0002C912093F100D6011196F6012081209319
:100DB000F1006D01FFEFCF1ADF0A2C912093F100B3
:100DC000D6011196F60120812093F1006D01FFEF0D
:100DD000CF1ADF0A2C912093F100D6011196F6016B
:100DE00020812093F1006D01FFEFCF1ADF0A2C91D3
:100DF0002093F100D6011196F60120812093F10095
:100E00006D01FFEFCF1ADF0A2C912093F100D6017C
:100E10001196F60120812093F1006D01FFEFCF1AAA
:100E2000DF0A2C912093F100D6011196F601208162
:100E30002093F1006D01FFEFCF1ADF0A2C91209370
:100E4000F100D6011196F60120812093F1006D0189
:100E5000FFEFCF1ADF0A2C912093F100D6011196F3
:100E6000F60120812093F1006D01FFEFCF1ADF0A18
:100E70002C912093F100D6011196F6012081209348
:100E8000F1006D01FFEFCF1ADF0A2C912093F100E2
:100E9000D6011196F60120812093F1006D01FFEF3C
:100EA000CF1ADF0A2C912093F100D6011196F6019A
:100EB00020812093F1006D01FFEFCF1ADF0A2C9102
:100EC0002093F100D6011196F60120812093F100C4
:100ED0006D01FFEFCF1ADF0A2C912093F100D601AC
:100EE0001196F60120812093F1006D01FFEFCF1ADA
:100EF000DF0A2C912093F100D6011196F601208192
:100F00002093F1006D01FFEFCF1ADF0A2C9120939F
:100F1000F100D6011196F60120812093F1006D01B8
:100F2000FFEFCF1ADF0A2C912093F100D601119622
:100F3000F60120812093F1006D01FFEFCF1ADF0A47
:100F40002C912093F1002091E80025FFF092E80019
:100F500010931401CFBF009709F003CE80E028CE94
:100F6000D6018FCFD60180CFD60171CFD601E0CE8A
:100F7000D601EBCED6015ACED60165CED6018ACEA9
:100F8000D60195CED6016CCED60177CED60111CF43
:100F9000D60102CFD601F3CED601E4CED6014ACF98
:100FA000D6013BCFD6012CCFD6011DCFD6010ECF17
:100FB000D6019BCFD6018CCFD6017DCFD6016ECF87
:100FC000D601ADCFD6019ECFD60198CED601A3CE05
:100FD000D6017ACED60185CE8FB7F89490911401C0
:100FE000992341F094E09093E9009AE39093E8000C
:100FF000109214018FBF089560910601709107014E
:101000008091080190910901089580910A01089545
:1010100080910B01089580910C0108958091120137
:1010200008952FB7F89490911501992311F192E04A
:101030009093E9009091E80095FF1BC091EA90938E
:10104000F10090E29093F1001092F1001092F10003
:101050001092F1001092F10091E09093F100109243
:10106000F1008093F1008AE38093E8002FBF80E0D5
:1010700008952FBF8FEF08951F920F920FB60F9212
:1010800011248F939F938091E1001092E10083FFE0
:1010900011C01092E90091E09093EB001092EC00E7
:1010A00092E19093ED0098E09093F000109215017A
:1010B0001092120182FF13C080911501882379F0EC
:1010C00080911401882359F081508093140181117B
:1010D00006C084E08093E9008AE38093E8009F9152
:1010E0008F910F900FBE0F901F9018951F920F9227
:1010F0000FB60F9211240BB60F922F933F934F937D
:101100005F936F937F938F939F93AF93BF93EF936F
:10111000FF931092E9008091E80083FF2BC060915B
:10112000F1004091F1008091F1002091F10090E0F8
:10113000922B2091F1005091F10030E0352BB091CD
:10114000F100A091F10052EF5093E800463009F40D
:101150004EC0453009F426C1493009F4BCC04830BE
:1011600009F42BC1413209F45EC1403209F0B8C123
:101170006132B1F081E28093EB00FF91EF91BF917A
:10118000AF919F918F917F916F915F914F913F911F
:101190002F910F900BBE0F900FBE0F901F901895C0
:1011A0008091E80082FFFCCF8091F10080930601DE
:1011B0008091F100809307018091F10080930801F4
:1011C0008091F100809309018091F10080930A01E0
:1011D0008091F10080930B018091F10080930C01CC
:1011E0008BEF8093E8008EEF8093E800C6CFE3EAB0
:1011F000F1E0459154918417950709F43FC14AEAFB
:1012000051E0FA01659174918617970709F441C17D
:10121000495F5F4FFA01659174918617970709F44A
:1012200041C1495F5F4FFA01659174918617970735
:1012300009F441C1495F5F4FFA01659174918617C6
:10124000970709F441C1495F5F4FFA0165917491B5
:101250008617970709F08ECFFA01329685919491FF
:101260002817390709F086CFFA0134962591349171
:10127000FA01369644918B2F90E09A2B8F3F91057F
:1012800019F010F08FEF90E0841708F4482F6EEFFC
:101290008091E800982F9570D9F382FD6ECF542F7E
:1012A000413108F4E6C050E1F901852F9491909303
:1012B000F100815031968111F9CF8FEF850F90E0C9
:1012C0000196280F391F451B6093E8004111E0CFBC
:1012D0005031F1F252CF611172C08093150110921A
:1012E0001201109214018EEF8093E80081E0809348
:1012F000E900E2E6F2E0E491E093EB00EE2309F48A
:10130000ECC0E3E6F2E0E491E093EC00E4E6F2E026
:10131000E491E093ED0025E632E082E08093E9007D
:10132000C9010196F90144914093EB00442351F027
:10133000FC0184918093EC00C901039631962491BD
:101340002093ED0023E02093E9009C012F5F3F4FA5
:10135000FC0144914093EB00442359F0F90124919E
:101360002093EC009C012D5F3F4F31968491809338
:10137000ED0084E08093E900C9010196F9014491F0
:101380004093EB00442341F0FC0184918093EC00F6
:10139000319624912093ED008EE18093EA00109223
:1013A000EA00EBCE2EEF2093E8002091E80020FF2A
:1013B000FCCF80688093E300E0CE603841F1542F89
:1013C0005D7F513009F0D6CE623009F0D3CE892B43
:1013D00009F0D0CE2F778FEF820F843008F0CACE7D
:1013E0008EEF8093E8002093E900433009F4C2CEE9
:1013F00089E18093EB0081E090E0022E01C0880F2C
:101400000A94EAF78093EA001092EA00B6CE80913F
:10141000E80080FFFCCF809115018093F1008EEFF2
:101420008093E800AACE613A51F68091E80080FFEF
:10143000FCCF809106018093F10080910701809399
:10144000F100809108018093F1008091090180935F
:10145000F10080910A018093F10080910B0180934B
:10146000F10080910C018093F1008EEF8093E800F1
:1014700084CE411119CF6093E8007FCEE5EAF1E018
:10148000459154912417350709F0B9CE43EA51E04C
:10149000EBCEFA013296659174912617370709F061
:1014A000B7CEE2CEFA0132966591749126173707CE
:1014B00009F0B7CED9CEFA0132966591749126170C
:1014C000370709F0B7CED0CEFA0132966591749104
:1014D0002617370709F0B7CEC7CE23E632E01DCF77
:1014E000423269F4613209F045CE80931201809155
:1014F000E80080FFFCCF8EEF8093E8003ECE4111E4
:101500005ECF8091E80080FFFCCF623831F080E050
:101510008093F1001092F100EECF2093E9008091CA
:10152000EB0085FB882780F91092E900F1CFCF937B
:10153000DF9300D0CDB7DEB71A8219820E9409026C
:1015400010E0C12CD12C76011A821982CE010196AD
:101550000E94750287E0C816D10428F4F601E45B06
:10156000FF4F0C94600B0E94FC030E94FC03FBCF16
:101570000E94F30389819A8187FF57C090FD57C06D
:1015800012E00E941504C12ED12CDECF0E94E5038B
:1015900089819A8185FD11C090FFF5CF16E096E014
:1015A000C92ED12CE12CF12CCFCF0E94D4038981FC
:1015B0009A8181FD12E083FFEFCF13E0EDCF0E940F
:1015C000EB0389819A819C012C703327232B09F02E
:1015D00011E086FF20C090FF30C016E00E94010499
:1015E000C12ED12CB1CF0E94CD0319811170C12E13
:1015F000D12CAACF0E942704FFCF0E94DE0389814D
:101600009A8184FF16C085FD16C014E00E940A046A
:1016100089819A81C1CF90FDE0CF1230F9F682E046
:10162000C82ED12CE12CF12C8FCF90FF8DCF16E05E
:10163000A8CF85FFB1CF11E0E9CF15E0CFCFA1E270
:101640001A2EAA1BBB1BFD010DC0AA1FBB1FEE1F3C
:10165000FF1FA217B307E407F50720F0A21BB30B87
:10166000E40BF50B661F771F881F991F1A9469F703
:1016700060957095809590959B01AC01BD01CF015F
:101680000895052E97FB1EF400940E94580B57FDF9
:1016900007D00E941F0B07FC03D04EF40C94580B8C
:1016A00050954095309521953F4F4F4F5F4F08958E
:1016B00090958095709561957F4F8F4F9F4F0895BE
:1016C000EE0FFF1F0590F491E02D0994A29FB00149
:1016D000B39FC001A39F700D811D1124911DB29F66
:1016E000700D811D1124911D08950E94660BA59F08
:1016F000900DB49F900DA49F800D911D112408950D
:04170000F894FFCF8B
:0E170400B80BB80BDC0500E100000000080087
:00000001FF
