:100000000C942F010C944E010C944E010C944E0153
:100010000C944E010C944E010C944E010C944E0124
:100020000C944E010C944E010C94D0070C940A08C9
:100030000C944E010C944E010C944E010C944E0104
:100040000C944E010C9453010C944E010C944E01EF
:100050000C944E010C944E010C944E010C944E01E4
:100060000C944E010C944E010C944E010C944E01D4
:100070000C944E010C944E010C944E010C944E01C4
:100080000C944E010C944E010C944E010C944E01B4
:100090000C944E010C944E0137078D052A07740706
:1000A0001D07760710076C0703076E07F606700733
:1000B000E9067207DC064407CF064607C206480772
:1000C000B5066207A80664079B0666078E066807E2
:1000D00081066A0774065A0767065C075A065E07B8
:1000E0004D06600740064C0733064A0726067A0786
:1000F000190678070C067E07FF057C07F2055407F2
:10010000E5055207D8055807CB055607BE05500729
:10011000B1054E07A4059C0594050D0A537570653D
:10012000727669736F727920436F6D707574657242
:100130002053657269616C5465726D696E616C20E3
:10014000496E746572666163650D0A0D0A737461A8
:100150007465203A207072696E74206375727265DE
:100160006E742076656869636C652073746174656C
:100170000D0A6576656E743D48565F5550203A20ED
:10018000736574206576656E7420746F2048565FC1
:1001900055500D0A0000010000420212000200004A
:1001A000FF014300030000FB010401030904E50112
:1001B0001402030904CD011603030904BF010C0C4A
:1001C00003310032003300340035000000160355BF
:1001D0000053004200200053006500720069006176
:1001E000006C000000140359006F007500720020BD
:1001F000004E0061006D0065000000040309040961
:10020000024300020100C0320904000001020201A1
:100210000005240010010524010101042402060543
:1002200024060001070582031000400904010002B2
:100230000A00000007050302400000070584024091
:1002400000001201000202000010C0167A04000132
:10025000010203010001C11201803601813611241F
:100260001FBECFEFD0E2DEBFCDBF11E0A0E0B1E016
:10027000E8E8F5E100E00BBF02C007900D92AC305A
:10028000B107D9F721E0ACE0B1E001C01D92A43183
:10029000B207E1F70E942B0A0C94C20A0C940000EA
:1002A0000E949203FDCF1F920F920FB60F9211245E
:1002B0002F933F934F935F936F937F938F939F936E
:1002C000AF93BF9380910E01882331F0809102019A
:1002D00090910301892B69F5589810920E01809135
:1002E0000D01882339F08091000190910101892B43
:1002F00009F043C080910D01882361F080910001D5
:1003000090910101892B31F4589810920D0181E0F0
:1003100080930C01BF91AF919F918F917F916F91CD
:100320005F914F913F912F910F900FBE0F901F90B3
:10033000189540910201509103019A013695279535
:10034000ABE7B4E10E94A80A9695879562E3689F9F
:100350009001699F300D11244217530721F48BB18E
:1003600091E089278BB98091020190910301019757
:100370009093030180930201B2CF589A80910001BB
:100380009091010101979093010180930001C2CFE8
:10039000E1E6F0E080E88083108211B89FEF94B925
:1003A00020E727B92FE02AB91DB810BA3EE032B9CC
:1003B00028B988B923E02EB991BB97E890937A00C9
:1003C00080937B00E1E8F0E080818A6080838FEC9D
:1003D00097E09093890080938800EFE6F0E08081B9
:1003E00082608083789408958EE580937C008FE30B
:1003F0009FE10197F1F700C0000080917A008064CE
:1004000080937A0080917A0086FDFCCF209178005D
:100410003091790040E050E064EB7BE281E190E0D4
:100420000E94800ACA01B9010895606460937C004B
:1004300020917A00206420937A0020917A0026FD92
:10044000FCCFA0917800B0917900FC01208131812E
:10045000428153810E94B70A2FEF33E040E050E021
:100460000E94800ACA01B90108958F929F92AF92AB
:10047000BF92CF92DF92EF92FF92CF93DF93EC0186
:100480008EE580937C008FE39FE10197F1F700C038
:10049000000080917A00806480937A0080917A00D5
:1004A00086FDFCCF209178003091790040E050E04B
:1004B00064EB7BE281E190E00E94800A69017A01AD
:1004C00082E480937C0080917A00806480937A003B
:1004D00080917A0086FDFCCF809178009091790020
:1004E00086E480937C0080917A00806480937A0017
:1004F00080917A0086FDFCCFA0917800B0917900C0
:10050000A70196010E94B70A2FEF33E040E050E0C8
:100510000E94800A49015A0187E480937C008091FF
:100520007A00806480937A0080917A0086FDFCCF07
:10053000A0917800B0917900A70196010E94B70AB6
:100540002FEF33E040E050E00E94800A84E4809383
:100550007C0080917A00806480937A0080917A0098
:1005600086FDFCCF809178009091790085E480939E
:100570007C0080917A00806480937A0080917A0078
:1005800086FDFCCF8091780090917900821A930AC1
:1005900001994AC088819981029B02C04D995BC034
:1005A000039B03C084609983888320910C012223DC
:1005B00019F08061998388834C9B03C0886099837C
:1005C00088834C9903C080629983888325EF8216C3
:1005D00021E092061CF080649983888386FD03C025
:1005E000806899838883309B02C031992BC021E0B9
:1005F00049B1609B02C061991DC031E0211102C068
:1006000047FD33C0916099838883789B2AC01092FC
:100610000F01DF91CF91FF90EF90DF90CF90BF90CF
:10062000AF909F908F900895888199818160998380
:100630008883B2CF669BE1CF3CB13095331F33271F
:10064000331FDCCF329BD3CF26B123FB222720F9E7
:1006500031E02327CDCF4E9BA3CF8260998388833F
:100660009FCF81E080930F01D4CF332371F2CACFA3
:10067000599A299A2A9A80910F01811104C088B150
:10068000806788B9089588B18F78806588B90895A2
:100690002F982D9A2E9A2C9A2B9880910F018111C8
:1006A00005C088B18F78806488B9089588B18F7843
:1006B000806588B9089581E080930D012C982F9A68
:1006C00028980895289A80910F01811105C088B15A
:1006D0008F78806688B9089588B18F78806588B9E9
:1006E000089581E080930E012B9A80910F01811172
:1006F00005C088B18F78806288B9089588B18F78F5
:10070000806588B908952B9880910F01811105C0EB
:1007100088B18F78806388B9089588B18F788065B3
:1007200088B9089588B18F78806588B90895109246
:100730000E018CED95E090930301809302010895E2
:1007400010920D0188E893E19093010180930001DC
:1007500010920C01089590910F01911109C028B1D8
:1007600030E1839FC00111242F78282B28B90895E8
:1007700088B18F78806588B908952F9859982D98F9
:100780002E982C982B9881E00E94AB03FFCF0C94FD
:100790004004CF93DF93EC012196FC0184918823E0
:1007A00039F00E94B704FE01849121968111F9CF9E
:1007B000DF91CF910895EF92FF920F931F93CF9304
:1007C000DF93EC01E62E662391F1F12C02C0FE14BA
:1007D000E0F40E945C048F3F2FEF9207F1F08D3020
:1007E000910599F08A30910581F09C0120523109E0
:1007F0002F35310560F78E010F5F1F4F88830E94F0
:10080000B704F394E801FE1420F38F2DDF91CF910C
:100810001F910F91FF90EF9008950E945904882333
:1008200021F00E94A20780FDD2CF8FEFEFCF80E0B2
:10083000EDCF1F93CF93DF93EC010E945904182F43
:100840000E94A207812380FD04C0DF91CF911F91F8
:1008500008950E94A004CE010E943502EAE1F1E071
:100860008491882391F3CBE1D1E00E94B704FE018B
:10087000849121968111F9CFDF91CF911F91089535
:1008800081E88093D70080EA8093D80086E189BD13
:1008900009B400FEFDCF80E98093D8001092E000FB
:1008A00010921301109210018CE08093E200789472
:1008B00008958091130108952FB7F8948091130142
:1008C0008823F9F083E08093E9008091E80085FDBA
:1008D0000CC082FF16C09BE602C082FF12C090933C
:1008E000E8008091E80085FFF8CF8091F1009091B9
:1008F000E80095FD03C09BE69093E8002FBF90E0D1
:1009000008952FBF8FEF9FEF08959FB7F8948091C0
:100910001301882391F083E08093E9008091F20035
:10092000811109C02091E80022FF07C025FD05C004
:100930002BE62093E8009FBF089580E09FBF0895B5
:1009400080911301882391F02FB7F89483E080936E
:10095000E9008091E80085FF07C09BE69093E800DE
:100960008091E80085FDFACF2FBF089508959091FA
:100970001301992309F443C09FB7F89424E020930E
:10098000E90020911101211132C03091E400375E5D
:100990002091E80025FD1CC09FBF9091E4009317B3
:1009A00081F190911301992351F144E009C09FBF57
:1009B0009091E400931729F1909113019923F9F094
:1009C0009FB7F8944093E9002091E80025FFEFCF0E
:1009D0008093F1008091E80085FD03C08AE3809355
:1009E000E80085E0809312019FBF80E00895209188
:1009F000E80025FF03C010921101C7CF9FBF8FEF02
:100A0000089581E0809311018FEF08959091130173
:100A10009923C1F02FB7F89494E09093E900909156
:100A2000E80095FF11C08093F1008091E80085FDFA
:100A300003C08AE38093E80085E0809312012FBF12
:100A400080E008958FEF08952FBF8FEF0895CF9224
:100A5000DF92FF920F931F93CF93DF936C01CB0133
:100A6000209113012223B9F1CFB7F89424E0209309
:100A7000E90020911101211137C0009709F402C249
:100A8000D4E000E42AE3F22E15E03091E400375E72
:100A90002091E80025FF0DC02EC0209113012223D4
:100AA000D1F0CFB7F894D093E9002091E80025FD6C
:100AB00022C0CFBF2091E4002313EFCF81E08093C9
:100AC00011018FEFDF91CF911F910F91FF90DF9078
:100AD000CF900895CFBF8FEFDF91CF911F910F91EE
:100AE000FF90DF90CF9008952091E80025FFF2CF8E
:100AF00010921101C2CF2091F200402F421B242FEF
:100B000030E08217930718F4482F9C013327821B8B
:100B1000930B50E04134510510F0D601A1C1445B64
:100B20005F4FFA010C94A20AF60120812093F10094
:100B300096012F5F3F4F6901F60120812093F1005C
:100B400096012F5F3F4F6901D6011196F601208172
:100B50002093F1006D01FFEFCF1ADF0A2C91209353
:100B6000F100D6011196F60120812093F1006D016C
:100B7000FFEFCF1ADF0A2C912093F100D6011196D6
:100B8000F60120812093F1006D01FFEFCF1ADF0AFB
:100B90002C912093F100D6011196F601208120932B
:100BA000F1006D01FFEFCF1ADF0A2C912093F100C5
:100BB000D6011196F60120812093F1006D01FFEF1F
:100BC000CF1ADF0A2C912093F100D6011196F6017D
:100BD00020812093F1006D01FFEFCF1ADF0A2C91E5
:100BE0002093F100D6011196F60120812093F100A7
:100BF0006D01FFEFCF1ADF0A2C912093F100D6018F
:100C00001196F60120812093F1006D01FFEFCF1ABC
:100C1000DF0A2C912093F100D6011196F601208174
:100C20002093F1006D01FFEFCF1ADF0A2C91209382
:100C3000F100D6011196F60120812093F1006D019B
:100C4000FFEFCF1ADF0A2C912093F100D601119605
:100C5000F60120812093F1006D01FFEFCF1ADF0A2A
:100C60002C912093F100D6011196F601208120935A
:100C7000F1006D01FFEFCF1ADF0A2C912093F100F4
:100C8000D6011196F60120812093F1006D01FFEF4E
:100C9000CF1ADF0A2C912093F100D6011196F601AC
:100CA00020812093F1006D01FFEFCF1ADF0A2C9114
:100CB0002093F100D6011196F60120812093F100D6
:100CC0006D01FFEFCF1ADF0A2C912093F100D601BE
:100CD0001196F60120812093F1006D01FFEFCF1AEC
:100CE000DF0A2C912093F100D6011196F6012081A4
:100CF0002093F1006D01FFEFCF1ADF0A2C912093B2
:100D0000F100D6011196F60120812093F1006D01CA
:100D1000FFEFCF1ADF0A2C912093F100D601119634
:100D2000F60120812093F1006D01FFEFCF1ADF0A59
:100D30002C912093F100D6011196F6012081209389
:100D4000F1006D01FFEFCF1ADF0A2C912093F10023
:100D5000D6011196F60120812093F1006D01FFEF7D
:100D6000CF1ADF0A2C912093F100D6011196F601DB
:100D700020812093F1006D01FFEFCF1ADF0A2C9143
:100D80002093F100D6011196F60120812093F10005
:100D90006D01FFEFCF1ADF0A2C912093F100D601ED
:100DA0001196F60120812093F1006D01FFEFCF1A1B
:100DB000DF0A2C912093F100D6011196F6012081D3
:100DC0002093F1006D01FFEFCF1ADF0A2C912093E1
:100DD000F100D6011196F60120812093F1006D01FA
:100DE000FFEFCF1ADF0A2C912093F100D601119664
:100DF000F60120812093F1006D01FFEFCF1ADF0A89
:100E00002C912093F100D6011196F60120812093B8
:100E1000F1006D01FFEFCF1ADF0A2C912093F10052
:100E2000D6011196F60120812093F1006D01FFEFAC
:100E3000CF1ADF0A2C912093F100D6011196F6010A
:100E400020812093F1006D01FFEFCF1ADF0A2C9172
:100E50002093F100D6011196F60120812093F10034
:100E60006D01FFEFCF1ADF0A2C912093F100209142
:100E7000E80025FFF092E80010931201CFBF009721
:100E800009F003CE80E028CED6018FCFD60180CFE7
:100E9000D60171CFD601E0CED601EBCED6015ACE27
:100EA000D60165CED6018ACED60195CED6016CCEBE
:100EB000D60177CED60111CFD60102CFD601F3CE1F
:100EC000D601E4CED6014ACFD6013BCFD6012CCFF6
:100ED000D6011DCFD6010ECFD6019BCFD6018CCF28
:100EE000D6017DCFD6016ECFD601ADCFD6019ECF34
:100EF000D60198CED601A3CED6017ACED60185CE24
:100F00008FB7F89490911201992341F094E0909357
:100F1000E9009AE39093E800109212018FBF0895C0
:100F20006091040170910501809106019091070183
:100F30000895809108010895809109010895809194
:100F40000A0108958091100108952FB7F8949091A7
:100F50001301992311F192E09093E9009091E80038
:100F600095FF1BC091EA9093F10090E29093F100FD
:100F70001092F1001092F1001092F1001092F10025
:100F800091E09093F1001092F1008093F1008AE3D8
:100F90008093E8002FBF80E008952FBF8FEF089562
:100FA0001F920F920FB60F9211248F939F938091EF
:100FB000E1001092E10083FF11C01092E90091E07E
:100FC0009093EB001092EC0092E19093ED0098E08A
:100FD0009093F000109213011092100182FF13C041
:100FE00080911301882379F080911201882359F0B0
:100FF000815080931201811106C084E08093E90042
:101000008AE38093E8009F918F910F900FBE0F901D
:101010001F9018951F920F920FB60F9211240BB6C6
:101020000F922F933F934F935F936F937F938F9381
:101030009F93AF93BF93EF93FF931092E90080913A
:10104000E80083FF2BC06091F1004091F100809196
:10105000F1002091F10090E0922B2091F10050914D
:10106000F10030E0352BB091F100A091F10052EF8A
:101070005093E800463009F44EC0453009F426C1CB
:10108000493009F4BCC0483009F42BC1413209F49D
:101090005EC1403209F0B8C16132B1F081E28093A3
:1010A000EB00FF91EF91BF91AF919F918F917F9155
:1010B0006F915F914F913F912F910F900BBE0F90C9
:1010C0000FBE0F901F9018958091E80082FFFCCF13
:1010D0008091F100809304018091F10080930501DB
:1010E0008091F100809306018091F10080930701C7
:1010F0008091F100809308018091F10080930901B3
:101100008091F10080930A018BEF8093E8008EEFCD
:101110008093E800C6CFE5E9F1E04591549184174A
:10112000950709F43FC14CE951E0FA0165917491CA
:101130008617970709F441C1495F5F4FFA0165912E
:1011400074918617970709F441C1495F5F4FFA010F
:10115000659174918617970709F441C1495F5F4F04
:10116000FA01659174918617970709F441C1495FA7
:101170005F4FFA01659174918617970709F08ECF3A
:10118000FA013296859194912817390709F086CF94
:10119000FA01349625913491FA01369644918B2FB9
:1011A00090E09A2B8F3F910519F010F08FEF90E0AF
:1011B000841708F4482F6EEF8091E800982F9570FF
:1011C000D9F382FD6ECF542F413108F4E6C050E1CF
:1011D000F901852F94919093F100815031968111FE
:1011E000F9CF8FEF850F90E00196280F391F451B2F
:1011F0006093E8004111E0CF5031F1F252CF61111C
:1012000072C08093130110921001109212018EEFA0
:101210008093E80081E08093E900E4E5F2E0E49166
:10122000E093EB00EE2309F4ECC0E5E5F2E0E49195
:10123000E093EC00E6E5F2E0E491E093ED0027E5D1
:1012400032E082E08093E900C9010196F9014491FE
:101250004093EB00442351F0FC0184918093EC0017
:10126000C9010396319624912093ED0023E0209349
:10127000E9009C012F5F3F4FFC0144914093EB003C
:10128000442359F0F90124912093EC009C012D5F37
:101290003F4F319684918093ED0084E08093E90084
:1012A000C9010196F90144914093EB00442341F0B8
:1012B000FC0184918093EC00319624912093ED0001
:1012C0008EE18093EA001092EA00EBCE2EEF20939D
:1012D000E8002091E80020FFFCCF80688093E300C5
:1012E000E0CE603841F1542F5D7F513009F0D6CE09
:1012F000623009F0D3CE892B09F0D0CE2F778FEF53
:10130000820F843008F0CACE8EEF8093E8002093DD
:10131000E900433009F4C2CE89E18093EB0081E01B
:1013200090E0022E01C0880F0A94EAF78093EA0049
:101330001092EA00B6CE8091E80080FFFCCF809149
:1013400013018093F1008EEF8093E800AACE613AFA
:1013500051F68091E80080FFFCCF809104018093DA
:10136000F100809105018093F10080910601809346
:10137000F100809107018093F10080910801809332
:10138000F100809109018093F10080910A0180931E
:10139000F1008EEF8093E80084CE411119CF609365
:1013A000E8007FCEE7E9F1E0459154912417350735
:1013B00009F0B9CE45E951E0EBCEFA0132966591DC
:1013C00074912617370709F0B7CEE2CEFA013296AC
:1013D000659174912617370709F0B7CED9CEFA0177
:1013E0003296659174912617370709F0B7CED0CEA3
:1013F000FA013296659174912617370709F0B7CE36
:10140000C7CE25E532E01DCF423269F4613209F0E2
:1014100045CE809310018091E80080FFFCCF8EEFD5
:101420008093E8003ECE41115ECF8091E80080FFBE
:10143000FCCF623831F080E08093F1001092F1002F
:10144000EECF2093E9008091EB0085FB882780F99F
:101450001092E900F1CFCF93DF9300D0CDB7DEB784
:101460001A8219820E94C80110E01A821982CE01E4
:1014700001960E94350289819A8190FF03C00E94E3
:10148000BD03FFCF1330D9F080F4113069F1123071
:1014900031F50E94710389819A818C709927892B7B
:1014A00021F30E94970311E0E0CF153099F0A8F4E2
:1014B0000E946203898185FFD8CF13E0D6CF0E94B6
:1014C0005B03898184FF18C085FD18C014E00E9469
:1014D000A003CBCF0E948303C8CF163081F20E94B5
:1014E000380319811170C1CF0E944803898181FDA1
:1014F00012E083FFBACFE1CF85FFB7CF11E0E7CF8E
:10150000A1E21A2EAA1BBB1BFD010DC0AA1FBB1F07
:10151000EE1FFF1FA217B307E407F50720F0A21B79
:10152000B30BE40BF50B661F771F881F991F1A94E6
:1015300069F760957095809590959B01AC01BD0110
:10154000CF010895EE0FFF1F0590F491E02D09944F
:10155000A29FB001B39FC001A39F700D811D1124F4
:10156000911DB29F700D811D1124911D08950E943F
:10157000A80AA59F900DB49F900DA49F800D911D6A
:0815800011240895F894FFCF37
:0C1588008813DC0500E1000000000800F2
:00000001FF
