:100000000C942F010C944E010C944E010C944E0153
:100010000C944E010C944E010C944E010C944E0124
:100020000C944E010C944E010C9482050C94BC056A
:100030000C944E010C944E010C944E010C944E0104
:100040000C944E010C944E010C944E010C944E01F4
:100050000C944E010C944E010C944E010C944E01E4
:100060000C944E010C944E010C944E010C944E01D4
:100070000C944E010C944E010C944E010C944E01C4
:100080000C944E010C944E010C944E010C944E01B4
:100090000C944E010C944E01E9043F03DC04260548
:1000A000CF042805C2041E05B5042005A8042205B6
:1000B0009B0424058E04F6048104F8047404FA04F5
:1000C000670414055A0416054D04180540041A0562
:1000D00033041C0526040C0519040E050C04100538
:1000E000FF031205F203FE04E503FC04D8032C050C
:1000F000CB032A05BE033005B1032E05A403060574
:10010000970304058A030A057D03080570030205A9
:100110006303000556034E0346030D0A53757065CD
:10012000727669736F727920436F6D707574657242
:100130002053657269616C5465726D696E616C20E3
:10014000496E746572666163650D0A0D0A737461A8
:100150007465203A207072696E74206375727265DE
:100160006E742076656869636C652073746174656C
:100170000D0A6576656E743D48565F5550203A20ED
:10018000736574206576656E7420746F2048565FC1
:1001900055500D0A0000010000420212000200004A
:1001A000FF014300030000FB010401030904E50112
:1001B0001402030904CD011603030904BF010C0C4A
:1001C00003310032003300340035000000160355BF
:1001D0000053004200200053006500720069006176
:1001E000006C000000140359006F007500720020BD
:1001F000004E0061006D0065000000040309040961
:10020000024300020100C0320904000001020201A1
:100210000005240010010524010101042402060543
:1002200024060001070582031000400904010002B2
:100230000A00000007050302400000070584024091
:1002400000001201000202000010C0167A04000132
:10025000010203010001C11201803601813611241F
:100260001FBECFEFD0E2DEBFCDBF11E0A0E0B1E016
:10027000EEE9F0E100E00BBF02C007900D92A8305C
:10028000B107D9F711E0A8E0B1E001C01D92AC3090
:10029000B107E1F70E94E0070C944D080C940000B0
:1002A000FFCFE1E6F0E080E88083108211B89EEF96
:1002B00094B990E397B99FE09AB91DB810BA9FEF2F
:1002C00091BB97E890937A0080937B0008958064B7
:1002D00080937C0080917A00806480937A00809182
:1002E0007A0086FDFCCF8091780090917900089586
:1002F00008950C94F201CF93DF93EC012196FC0159
:100300008491882339F00E946902FE01849121962C
:100310008111F9CFDF91CF910895EF92FF920F9362
:100320001F93CF93DF93EC01E62E662391F1F12C1E
:1003300002C0FE14E0F40E940E028F3F2FEF9207DE
:10034000F1F08D30910599F08A30910581F09C0192
:10035000205231092F35310560F78E010F5F1F4F95
:1003600088830E946902F394E801FE1420F38F2D24
:10037000DF91CF911F910F91FF90EF9008950E9410
:100380000B02882321F00E94540580FDD2CF8FEF0D
:10039000EFCF80E0EDCF1F93CF93DF93EC010E946E
:1003A0000B02182F0E945405812380FD04C0DF91A9
:1003B000CF911F9108950E945202CE010E947801B0
:1003C000EAE1F1E08491882391F3CBE1D1E00E944E
:1003D0006902FE01849121968111F9CFDF91CF91BD
:1003E0001F91089581E88093D70080EA8093D80018
:1003F00086E189BD09B400FEFDCF80E98093D80075
:100400001092E00010920B01109208018CE0809392
:10041000E2007894089580910B0108952FB7F89425
:1004200080910B018823F9F083E08093E9008091AB
:10043000E80085FD0CC082FF16C09BE602C082FF6B
:1004400012C09093E8008091E80085FFF8CF80917A
:10045000F1009091E80095FD03C09BE69093E800C1
:100460002FBF90E008952FBF8FEF9FEF08959FB7A4
:10047000F89480910B01882391F083E08093E90048
:100480008091F200811109C02091E80022FF07C08D
:1004900025FD05C02BE62093E8009FBF089580E06E
:1004A0009FBF089580910B01882391F02FB7F89496
:1004B00083E08093E9008091E80085FF07C09BE618
:1004C0009093E8008091E80085FDFACF2FBF089552
:1004D000089590910B01992309F443C09FB7F894B4
:1004E00024E02093E90020910901211132C03091CC
:1004F000E400375E2091E80025FD1CC09FBF90916D
:10050000E400931781F190910B01992351F144E09C
:1005100009C09FBF9091E400931729F190910B01BE
:100520009923F9F09FB7F8944093E9002091E800EF
:1005300025FFEFCF8093F1008091E80085FD03C097
:100540008AE38093E80085E080930A019FBF80E002
:1005500008952091E80025FF03C010920901C7CF3C
:100560009FBF8FEF089581E0809309018FEF089579
:1005700090910B019923C1F02FB7F89494E09093D8
:10058000E9009091E80095FF11C08093F1008091FF
:10059000E80085FD03C08AE38093E80085E080934E
:1005A0000A012FBF80E008958FEF08952FBF8FEFCE
:1005B0000895CF92DF92FF920F931F93CF93DF9313
:1005C0006C01CB0120910B012223B9F1CFB7F89434
:1005D00024E02093E90020910901211137C0009700
:1005E00009F402C2D4E000E42AE3F22E15E03091CF
:1005F000E400375E2091E80025FF0DC02EC0209159
:100600000B012223D1F0CFB7F894D093E9002091C9
:10061000E80025FD22C0CFBF2091E4002313EFCFD7
:1006200081E0809309018FEFDF91CF911F910F91AE
:10063000FF90DF90CF900895CFBF8FEFDF91CF91E4
:100640001F910F91FF90DF90CF9008952091E800C7
:1006500025FFF2CF10920901C2CF2091F200402F66
:10066000421B242F30E08217930718F4482F9C0177
:100670003327821B930B50E04134510510F0D60113
:10068000A1C1445B5F4FFA010C944708F601208139
:100690002093F10096012F5F3F4F6901F601208101
:1006A0002093F10096012F5F3F4F6901D60111960B
:1006B000F60120812093F1006D01FFEFCF1ADF0AD0
:1006C0002C912093F100D6011196F6012081209300
:1006D000F1006D01FFEFCF1ADF0A2C912093F1009A
:1006E000D6011196F60120812093F1006D01FFEFF4
:1006F000CF1ADF0A2C912093F100D6011196F60152
:1007000020812093F1006D01FFEFCF1ADF0A2C91B9
:100710002093F100D6011196F60120812093F1007B
:100720006D01FFEFCF1ADF0A2C912093F100D60163
:100730001196F60120812093F1006D01FFEFCF1A91
:10074000DF0A2C912093F100D6011196F601208149
:100750002093F1006D01FFEFCF1ADF0A2C91209357
:10076000F100D6011196F60120812093F1006D0170
:10077000FFEFCF1ADF0A2C912093F100D6011196DA
:10078000F60120812093F1006D01FFEFCF1ADF0AFF
:100790002C912093F100D6011196F601208120932F
:1007A000F1006D01FFEFCF1ADF0A2C912093F100C9
:1007B000D6011196F60120812093F1006D01FFEF23
:1007C000CF1ADF0A2C912093F100D6011196F60181
:1007D00020812093F1006D01FFEFCF1ADF0A2C91E9
:1007E0002093F100D6011196F60120812093F100AB
:1007F0006D01FFEFCF1ADF0A2C912093F100D60193
:100800001196F60120812093F1006D01FFEFCF1AC0
:10081000DF0A2C912093F100D6011196F601208178
:100820002093F1006D01FFEFCF1ADF0A2C91209386
:10083000F100D6011196F60120812093F1006D019F
:10084000FFEFCF1ADF0A2C912093F100D601119609
:10085000F60120812093F1006D01FFEFCF1ADF0A2E
:100860002C912093F100D6011196F601208120935E
:10087000F1006D01FFEFCF1ADF0A2C912093F100F8
:10088000D6011196F60120812093F1006D01FFEF52
:10089000CF1ADF0A2C912093F100D6011196F601B0
:1008A00020812093F1006D01FFEFCF1ADF0A2C9118
:1008B0002093F100D6011196F60120812093F100DA
:1008C0006D01FFEFCF1ADF0A2C912093F100D601C2
:1008D0001196F60120812093F1006D01FFEFCF1AF0
:1008E000DF0A2C912093F100D6011196F6012081A8
:1008F0002093F1006D01FFEFCF1ADF0A2C912093B6
:10090000F100D6011196F60120812093F1006D01CE
:10091000FFEFCF1ADF0A2C912093F100D601119638
:10092000F60120812093F1006D01FFEFCF1ADF0A5D
:100930002C912093F100D6011196F601208120938D
:10094000F1006D01FFEFCF1ADF0A2C912093F10027
:10095000D6011196F60120812093F1006D01FFEF81
:10096000CF1ADF0A2C912093F100D6011196F601DF
:1009700020812093F1006D01FFEFCF1ADF0A2C9147
:100980002093F100D6011196F60120812093F10009
:100990006D01FFEFCF1ADF0A2C912093F100D601F1
:1009A0001196F60120812093F1006D01FFEFCF1A1F
:1009B000DF0A2C912093F100D6011196F6012081D7
:1009C0002093F1006D01FFEFCF1ADF0A2C912093E5
:1009D000F1002091E80025FFF092E80010930A0151
:1009E000CFBF009709F003CE80E028CED6018FCF8D
:1009F000D60180CFD60171CFD601E0CED601EBCEA5
:100A0000D6015ACED60165CED6018ACED60195CE74
:100A1000D6016CCED60177CED60111CFD60102CF4A
:100A2000D601F3CED601E4CED6014ACFD6013BCFD4
:100A3000D6012CCFD6011DCFD6010ECFD6019BCF2C
:100A4000D6018CCFD6017DCFD6016ECFD601ADCFEA
:100A5000D6019ECFD60198CED601A3CED6017ACEAE
:100A6000D60185CE8FB7F89490910A01992341F071
:100A700094E09093E9009AE39093E80010920A01C1
:100A80008FBF089560910001709101018091020172
:100A900090910301089580910401089580910501CA
:100AA00008958091060108958091080108952FB757
:100AB000F89490910B01992311F192E09093E90041
:100AC0009091E80095FF1BC091EA9093F10090E2AD
:100AD0009093F1001092F1001092F1001092F10049
:100AE0001092F10091E09093F1001092F100809348
:100AF000F1008AE38093E8002FBF80E008952FBFC4
:100B00008FEF08951F920F920FB60F9211248F93BB
:100B10009F938091E1001092E10083FF11C0109239
:100B2000E90091E09093EB001092EC0092E1909339
:100B3000ED0098E09093F00010920B0110920801E4
:100B400082FF13C080910B01882379F080910A0104
:100B5000882359F0815080930A01811106C084E0F6
:100B60008093E9008AE38093E8009F918F910F9032
:100B70000FBE0F901F9018951F920F920FB60F92F5
:100B800011240BB60F922F933F934F935F936F9364
:100B90007F938F939F93AF93BF93EF93FF931092A5
:100BA000E9008091E80083FF2BC06091F100409143
:100BB000F1008091F1002091F10090E0922B2091C2
:100BC000F1005091F10030E0352BB091F100A0918F
:100BD000F10052EF5093E800463009F44EC0453022
:100BE00009F429C1493009F4BCC0483009F42EC1C8
:100BF000413209F461C1403209F0BBC16132B1F048
:100C000081E28093EB00FF91EF91BF91AF919F91B3
:100C10008F917F916F915F914F913F912F910F90A5
:100C20000BBE0F900FBE0F901F9018958091E8009B
:100C300082FFFCCF8091F100809300018091F10050
:100C4000809301018091F100809302018091F10075
:100C5000809303018091F100809304018091F10061
:100C6000809305018091F100809306018BEF8093C2
:100C7000E8008EEF8093E800C6CFE5E9F1E045910A
:100C800054918417950709F442C14CE951E0FA01E7
:100C9000659174918617970709F444C1495F5F4FC6
:100CA000FA01659174918617970709F444C1495F69
:100CB0005F4FFA01659174918617970709F444C153
:100CC000495F5F4FFA01659174918617970709F4A0
:100CD00044C1495F5F4FFA01659174918617970788
:100CE00009F08ECFFA013296859194912817390731
:100CF00009F086CFFA01349625913491FA0136969F
:100D000044918B2F90E09A2B8F3F910519F010F0B2
:100D10008FEF90E0841708F4482F6EEF8091E80081
:100D2000982F9570D9F382FD6ECF542F413108F47E
:100D3000E9C050E1F901852F94919093F100815021
:100D400031968111F9CF8FEF850F90E00196280F32
:100D5000391F451B6093E8004111E0CF5031F1F29B
:100D600052CF611175C080930B011092080110924F
:100D70000A018EEF8093E80081E08093E900E4E5CA
:100D8000F2E0E491E093EB00EE2309F4EFC0E5E537
:100D9000F2E0E491E093EC00E6E5F2E0E491E09328
:100DA000ED0027E532E082E08093E900C901019679
:100DB000F90144914093EB00442359F0FC018491E4
:100DC0008093EC00C9010396F90132962491209397
:100DD000ED0023E02093E9009C012F5F3F4FFC01D1
:100DE00044914093EB00442361F0F9012491209356
:100DF000EC009C012D5F3F4FFC0132968491809363
:100E0000ED0084E08093E900C9010196F901449165
:100E10004093EB00442349F0FC0184918093EC0063
:100E2000F901329624912093ED008EE18093EA003F
:100E30001092EA00E8CE2EEF2093E8002091E8001F
:100E400020FFFCCF80688093E300DDCE603841F165
:100E5000542F5D7F513009F0D3CE623009F0D0CEEF
:100E6000892B09F0CDCE2F778FEF820F843008F0D9
:100E7000C7CE8EEF8093E8002093E900433009F459
:100E8000BFCE89E18093EB0081E090E0022E01C0AB
:100E9000880F0A94EAF78093EA001092EA00B3CE32
:100EA0008091E80080FFFCCF80910B018093F100DE
:100EB0008EEF8093E800A7CE613A51F68091E8006A
:100EC00080FFFCCF809100018093F10080910101AF
:100ED0008093F100809102018093F10080910301E1
:100EE0008093F100809104018093F10080910501CD
:100EF0008093F100809106018093F1008EEF809342
:100F0000E80081CE411116CF6093E8007CCEE7E97E
:100F1000F1E0459154912417350709F0B6CE45E923
:100F200051E0E8CEFA0132966591749126173707A1
:100F300009F0B4CEDFCEFA0132966591749126178E
:100F4000370709F0B4CED6CEFA0132966591749186
:100F50002617370709F0B4CECDCEFA013296659147
:100F600074912617370709F0B4CEC4CE25E532E0D8
:100F70001ACF423269F4613209F042CE80930801FF
:100F80008091E80080FFFCCF8EEF8093E8003BCE9D
:100F900041115ECF8091E80080FFFCCF623831F0D4
:100FA00080E08093F1001092F100EECF2093E900F1
:100FB0008091EB0085FB882780F91092E900F1CF42
:100FC000CF93DF9300D01F92CDB7DEB71B8281E0B5
:100FD00090E09A8389830E94510101E010E084E04F
:100FE000B82ECC24C39492E0D92E23E0E22E35E033
:100FF000F32E1A830983CE0101960E947801BE0167
:101000006D5F7F4FCE0101960E94CB018B818230B4
:10101000B9F030F0843079F140F1853099F5FFCFA7
:101020008823E1F08130C9F489819A818230910569
:1010300039F18430910549F10897D9F6FB82D9CF6F
:1010400089819A8181309105F1F084309105D9F040
:101050008630910589F7BB82CCCFFFCF89819A81F9
:101060008130910549F7CB82C4CF89819A8185303F
:10107000910511F7F8CF89819A8187309105E1F6C2
:10108000DB82B7CFEACFCB82E3CFEB82B2CFEE0FDA
:0E109000FF1F0590F491E02D0994F894FFCF16
:08109E0000E100000000080061
:00000001FF
